:100000000C9489160C94BA160C94BA160C94BA1661
:100010000C94BA160C94BA160C94BA160C94BA1620
:100020000C94BA160C94FBC00C94FBC00C94FBC04F
:100030000C94BA160C94C38A0C94BA160C94BA1683
:100040000C94BA160C9455A00C94BA160C94BA16CB
:100050000C94BA160C94BA160C94EC930C9418C920
:100060000C94BA160C945C830C9452830C94BA16BC
:100070000C94BA160C94BA160C94BA160C94BA16C0
:100080000C94D4680C94BA160C94BA160C94BA1644
:100090000C948B8B0C94628B0C94BA160C94BA163D
:1000A0000C94BA160C94BA160C94A6680C94BA1652
:1000B0000C94BA160C94BA160C94BA160C94BA1680
:1000C0000C94BA160C94BA160C94BA160C94BA1670
:1000D0000C94BA160C94BA160C94BA160C94BA1660
:1000E0000C94BA16084AD73B3BCE016E84BCBFFDC8
:1000F000C12F3D6C74319ABD56833DDA3D00C77FF8
:1001000011BED9E4BB4C3E916BAAAABE0000008090
:100110003F05A84CCDB2D44EB93836A9020C50B91F
:10012000918688083CA6AAAA2ABE000000803F004B
:100130004E414E494E495459494E46CDCCCC3D0ACC
:10014000D7233C17B7D13877CC2B329595E6241FAF
:10015000B14F0A000020410000C84200401C462068
:10016000BCBE4CCA1B0E5AAEC59D7400407A10F33B
:100170005A00A0724E18090010A5D4E80000E876D5
:1001800048170000E40B54020000CA9A3B0000002C
:10019000E1F505000080969800000040420F000045
:1001A00000A08601000000102700000000E8030006
:1001B0000000006400000000000A000000000001D0
:1001C00000000000002C76D888DC674F0823DFC1D0
:1001D000DFAE59E1B1B796E5E3E453C63AE651998B
:1001E0007696E8E6C28426EB898C9B62ED407C6FB4
:1001F000FCEFBC9C9F40F2BAA56FA5F490055A2A6B
:10020000F75C936B6CF9676DC11BFCE0E40D47FE76
:10021000F520E6B500D0ED902E030094357705006B
:1002200080841E080000204E0A000000C80C3333F2
:1002300033330F986E12831141EF8D2114893BE601
:100240005516CFFEE6DB18D1844B381BF77C1D908A
:100250001DA4BBE424203284725E228100C9F124F3
:10026000ECA1E53D271FE020102310249010A011E1
:10027000202210241037B00840048003001FE02023
:1002800010211023101520112021102110313008C9
:1002900040048003001FE03FF03CF03B701F601EF5
:1002A000E03DF03BF038700FC0078003001FE03FD7
:1002B000F03EF03CF01AE01EE03EF03EF03EF00F63
:1002C000C00780030041425300504C4100506C6510
:1002D000617365205265736574005052494E5445F0
:1002E000522048414C5445440025533A20255300A0
:1002F0004B494C4C45442E20005072696E74657217
:100300002068616C7465642E206B696C6C282920F0
:1003100063616C6C6564210A006563686F3A00452F
:1003200072726F723A0066616C7365007472756503
:1003300000303D2E33323500313D2E3138006D61B5
:1003400078002F3331002F3331002F333100303D0F
:100350002E33323500313D2E3138006D6178002F5B
:100360003331002F3331002F333100303D2E333203
:100370003500313D2E3138006D6178002F3331006A
:100380002F3331002F333100303D2E3332350031E1
:100390003D2E3138006D6178002F3331002F33311D
:1003A000002F333100303D2E33323500313D2E31B8
:1003B00038006D6178002F3331002F3331002F3337
:1003C0003100092042616420726573706F6E73653D
:1003D0002100092042616420726573706F6E73653D
:1003E0002100092042616420726573706F6E73652D
:1003F0002100092042616420726573706F6E73651D
:100400002100092042616420726573706F6E73650C
:1004100021004C4F570048494748004F4B00457258
:10042000726F723A20416C6C200020636F6E6E65B3
:100430006374696F6E2E2E2E200054657374696E7E
:100440006720004C4F570048494748004F4B004534
:1004500072726F723A20416C6C200020636F6E6E76
:10046000656374696F6E2E2E2E2000546573746957
:100470006E6720004C4F570048494748004F4B00DB
:100480004572726F723A20416C6C200020636F6E6F
:100490006E656374696F6E2E2E2E20005465737422
:1004A000696E6720004C4F570048494748004F4B42
:1004B000004572726F723A20416C6C200020636FAD
:1004C0006E6E656374696F6E2E2E2E2000546573F8
:1004D00074696E6720004C4F570048494748004FE9
:1004E0004B004572726F723A20416C6C20002063A1
:1004F0006F6E6E656374696F6E2E2E2E20005465CC
:100500007374696E672000544D4320434F4E4E452F
:100510004354494F4E204552524F5200204D3932DC
:10052000205400204D39322058004452565F535415
:1005300041545553090050574D5F5343414C4509B1
:100540000050574D434F4E460900434F4F4C434FC9
:100550004E46090043484F50434F4E460900544809
:1005600049474809090054434F4F4C5448525309D6
:10057000005450574D544852530900545354455059
:1005800009090054504F574552444F574E090049EE
:100590004F494E090900475354415409090049483D
:1005A0004F4C445F4952554E090047434F4E460950
:1005B0000900090044726976657220726567697383
:1005C000746572733A0A007332767362090073328B
:1005D0007673610900313230430900313433430905
:1005E000003135304309003135374309006F740954
:1005F000006F7470770900733267610900733267A6
:100600006209006F6C6109006F6C6209007374739A
:1006100074090073675F726573756C740044525699
:1006200053544154555300755374657020636F756E
:100630006E74005374616C6C6775617264207468C9
:10064000727300202D737461727409006879737479
:100650006572657369730A202D656E640900626CAA
:10066000616E6B2074696D65006F66662074696DDC
:10067000650070776D2067726164206175746F002A
:1006800070776D206F6666736574206175746F0096
:1006900070776D207363616C65206175746F007095
:1006A000776D207363616C652073756D004F542006
:1006B0007072657761726E005B6D6D2F735D0900FE
:1006C00050574D207468726573682E00747374659A
:1006D000700900696E7465727009006D73746570DD
:1006E000730900737465616C746843686F70007699
:1006F00073656E7365090050574D207363616C65B7
:100700000043532061637475616C00486F6C642012
:1007100063757272656E740052756E2063757272C5
:10072000656E74004D41582063757272656E740079
:10073000524D532063757272656E74005365742058
:1007400063757272656E7400456E61626C656409F2
:1007500000090020496E76616C69642065787472C6
:1007600075646572200020496E76616C696420456D
:100770002073746570706572200020452073746565
:1007800070706572206E6F7420737065636966693E
:1007900065640A004361703A0020573A00436F6F66
:1007A0006C696E672E2E2E0048656174696E672E27
:1007B0002E2E004525632025530020573A00426520
:1007C0006420436F6F6C696E672E2E2E0042656445
:1007D0002048656174696E672E2E2E00236465665D
:1007E000696E652044454641554C545F004B64207A
:1007F000004B6920004B7020005049442041757423
:100800006F74756E652066696E6973686564212012
:1008100050757420746865206C617374204B702C63
:10082000204B6920616E64204B6420636F6E73748B
:10083000616E74732066726F6D2062656C6F7720D5
:10084000696E746F20436F6E666967757261746953
:100850006F6E2E680A00504944204175746F74759C
:100860006E65206661696C6564212074696D656FD1
:1008700075740A00504944204175746F74756E6533
:10088000206661696C6564212054656D70657261D4
:100890007475726520746F6F20686967680A00203C
:1008A0004B643A2000204B693A2000204B703A20DC
:1008B0000020436C617373696320504944200A002F
:1008C0002054753A2000204B753A2000206D617845
:1008D0003A2000206D696E3A200020643A20002002
:1008E000626961733A2000504944204175746F7405
:1008F000756E652073746172740A0050494420411A
:1009000075746F74756E65206661696C656421200D
:1009100054656D706572617475726520746F6F20B7
:10092000686967680A00504944204175746F74759E
:100930006E65206661696C6564212042616420688F
:1009400065617465722069640A00504944204175EC
:10095000746F74756E65004572723A2075746638EE
:1009600020666F6E74206E6F7420696E69746961A1
:100970006C697A65642E004572723A207574663827
:1009800020666F6E74206E6F7420696E6974696181
:100990006C697A65642E004572723A207574663807
:1009A00020666F6E74206E6F7420696E6974696161
:1009B0006C697A65642E00FFE0FFD140A0C8A6A252
:1009C0002FF80023AC00AF10FFFEFF05FFD0FFE0C3
:1009D000FFC1FFD1E240A0C8A6A22FF800238127C3
:1009E000AC00AFFFD0FF64FFD1A5FFD0FF64FF6470
:1009F000FFD1A4FFD0FF16FFFE42656400456E6381
:100A00006C6F73757265002020202020202000204C
:100A1000202020007D026502AD0295023FFFF038E4
:100A2000007030FC3020FC102078102030102C009A
:100A3000D02E31D02F7BD02F7BD02E31D02C00D098
:100A400020301020781020FC1030FC303800703F2F
:100A5000FFF03FFFF0380070318630238710278782
:100A6000902F87D02F03D0203010207810207810BE
:100A70002030102F03D02F87D02787902387103165
:100A800086303800703FFFF01FFFF81FFFF804109A
:100A90004002082002082004104008208010410075
:100AA0001041000820800410400000001FFFF81FC4
:100AB000FFF846696C2E204469612E202A004669A1
:100AC0006C2E204469612E004520696E206D6D5E9C
:100AD000330020082046616374002008204D6178AF
:100AE000002008204D696E004F6666004F6E004181
:100AF00075746F74656D70005654726176204D691F
:100B00006E00566D696E00566D6178202A00566D34
:100B10006178204500566D6178205A00566D6178E5
:100B2000205900566D6178205800416D6178202A67
:100B300000416D6178204500416D6178205A004187
:100B40006D6178205900416D6178205800412D5425
:100B5000726176656C00412D526574726163740038
:100B6000416363656C0056652D4A65726B00565A89
:100B70002D4A65726B0056592D4A65726B005658A6
:100B80002D4A65726B002A2053746570732F6D6D4A
:100B9000005A2053746570732F6D6D005920537483
:100BA0006570732F6D6D00582053746570732F6DD1
:100BB0006D00416476616E63656420536574746989
:100BC0006E6773004D3432380046696C616D656E36
:100BD000740054656D706572617475726500544D72
:100BE0004320447269766572730053746570732F85
:100BF0006D6D004A65726B00416363656C6572617F
:100C000074696F6E0056656C6F6369747900536523
:100C10007420486F6D65204F66667365747300437A
:100C20006F6E66696775726174696F6E005A2052E3
:100C30006169736500326E64204E6F7A7A6C65204C
:100C40005A00326E64204E6F7A7A6C6520590032F9
:100C50006E64204E6F7A7A6C65205800426564009D
:100C60004E6F7A7A6C650046616E205370656564DC
:100C700000436F6E66696775726174696F6E0052CA
:100C80006573746F72652044656661756C7473007A
:100C900050726568656174202420436F6E66004C55
:100CA000434420436F6E747261737400546F6F6CB1
:100CB000204368616E676500546F6F6C204F6666F5
:100CC0007365747300416476616E63656420536577
:100CD0007474696E6773004D61696E003135300060
:100CE00035004245443A204D656E64656C2D706157
:100CF0007274730052756E61776179205761746305
:100D0000683A204F4E0032373500350045323A20E0
:100D10004D656E64656C2D7061727473004D617801
:100D20002054656D7000323735004D696E20546572
:100D30006D7000350045313A204D656E64656C2D4F
:100D40007061727473005053550047656E65726927
:100D5000630050726F746F636F6C00312E3000420D
:100D600061756400313135323030004D4B532047CE
:100D7000454E203E3D2076312E3300457874727505
:100D8000646572730032006D61726C696E66772EF5
:100D90006F7267003344205072696E74657200325E
:100DA0003032312D30362D323700322E302E392E62
:100DB00031004D61726C696E00546865726D6973C3
:100DC000746F727300426F61726420496E666F00C7
:100DD0005072696E74657220496E666F004D61696C
:100DE0006E0041626F7574205072696E7465720096
:100DF000436F6E66696775726174696F6E005465E2
:100E00006D7065726174757265004D6F74696F6E97
:100E10000054756E6500496E666F20536372656598
:100E20006E004578747275646572202A004D6F7487
:100E3000696F6E0044697361626C652053746570FC
:100E400070657273004D3834004175746F20486FBF
:100E50006D6500473238004D61696E0050726568FB
:100E6000656174202420416C6C0050726568656176
:100E700074202420426564005072656865617420A6
:100E80002420456E64207E00507265686561742080
:100E900024207E0054656D70657261747572650002
:100EA000C902C502436F6F6C646F776E0050726544
:100EB0006865617420240046616E20537065656426
:100EC00000426564004E6F7A7A6C65207E004D6149
:100ED000696E004532004531005A005900580045FE
:100EE00032004531005A0059004F6666004F6E00CF
:100EF0005800544D432044726976657273005374F0
:100F000065616C746843686F7020456E61626C65E2
:100F100064005374657070696E67204D6F6465007E
:100F20004472697665722043757272656E74004111
:100F30006476616E6365642053657474696E67736B
:100F4000004261627973746570205A00466C6F7755
:100F5000207E00466C6F770046616E205370656599
:100F60006400426564004E6F7A7A6C65207E00539F
:100F700070656564004D61696E006F70656E005448
:100F80005249474745524544003A20007A5F6D6117
:100F90007800795F6D617800785F6D6178005265E7
:100FA000706F7274696E6720656E6473746F702001
:100FB0007374617475730A0000007A4300007A4309
:100FC0000000A043000020C100000000000000005D
:100FD0005761726E696E673A20486F6D696E67205F
:100FE00042756D702044697669736F72203C2031C0
:100FF0000A000202040000824300007A430000A0BD
:10100000430000A0400000A04000000040000C0F82
:1010100000FE07022503BB017FFE08FE08FE05084F
:101020000806000040F0C88888987810050808066F
:101030000000C0F88888888888F805050506000142
:101040002030F830200508080600002070F8202025
:101050002020E00509090600FF2070A8A8B88888AC
:101060007020070505070001D86C366CD805090902
:101070000600FFF8A88888888888A8F8050A0A0664
:1010800000FE205050505088A8A888700303030623
:10109000000340A040FFFFFFFFFFFFFFFFFFFFFF38
:1010A000FFFFFFFFFFFFFFFFFFFFFF000000060540
:1010B000FF01070706020080808080800080030314
:1010C00003060105A0A0A005060606000050F85082
:1010D00050F8500509090600FF2070A8A07028A844
:1010E0007020050707060000C8C810204098980522
:1010F000070706000040A0A040A89068010303066F
:1011000002058080800309090601FF20404080809D
:10111000804040200309090601FF80404020202034
:1011200040408005070706000020A8702070A82016
:101130000505050600012020F82020020303060112
:10114000FFC04080050101060003F802020206010B
:1011500000C0C005070706000008101020404080AE
:10116000050707060000708898A8C888700307075D
:1011700006010040C040404040E00507070600006F
:10118000708808102040F8050707060000F80810CE
:101190003008887005070706000010305090F810DE
:1011A00010050707060000F880F00808887005079A
:1011B00007060000304080F08888700507070600A9
:1011C00000F808101020202005070706000070888E
:1011D000887088887005070706000070888878087E
:1011E0001060020505060100C0C000C0C00206066E
:1011F0000601FFC0C000C0408003050506010120B4
:1012000040804020050303060002F800F8030505AE
:101210000601018040204080050707060000708815
:1012200010202000200507070600007088B8A8B825
:101230008070050707060000708888F88888880590
:101240000707060000F04848704848F00507070601
:10125000000070888080808870050707060000F015
:101260004848484848F0050707060000F88080F025
:101270008080F8050707060000F88080F0808080F5
:1012800005070706000070888080988870050707AA
:10129000060000888888F888888803070706010008
:1012A000E04040404040E0050707060000381010CD
:1012B000101090600507070600008890A0C0A0905D
:1012C00088050707060000808080808080F8050779
:1012D0000706000088D8A8888888880507070600C0
:1012E000008888C8A89888880507070600007088C5
:1012F0008888888870050707060000F08888F080D5
:10130000808005070706000070888888A890680517
:101310000707060000F08888F0A0908805070706F8
:10132000000070888070088870050707060000F8C4
:1013300020202020202005070706000088888888B4
:101340008888700507070600008888888850502024
:1013500005070706000088888888A8A850050707A1
:10136000060000888850205088880507070600007E
:1013700088885020202020050707060000F8081064
:10138000204080F80309090601FFE080808080800A
:101390008080E0050707060000804040201010080C
:1013A0000309090601FFE020202020202020E0057D
:1013B00003030600052050880501010600FEF8031E
:1013C000030306010580402005050506000070089E
:1013D0007888780507070600008080F0888888F004
:1013E0000505050600007080808870050707060067
:1013F0000008087888888878050505060000708848
:10140000F08070050707060000304840E04040408B
:101410000507070600FE70888888780870050707AA
:101420000600008080F0888888880307070601008E
:101430004000C0404040E00409090601FE100030B1
:10144000101010109060050707060000808088903B
:10145000E09088030707060100C04040404040E09C
:10146000050505060000D0A8A8A8A80505050600E2
:1014700000B0C8888888050505060000708888883F
:10148000700507070600FEF0888888F08080050751
:10149000070600FE78888888780808050505060094
:1014A00000B0C880808005050506000078807008BF
:1014B000F00507070600002020F820202018050569
:1014C00005060000888888986805050506000088DC
:1014D000888850200505050600008888A8A85005C2
:1014E000050506000088502050880507070600FE05
:1014F00088888850204080050505060000F81020E7
:1015000040F80309090601FF204040408040404068
:10151000200109090602FF80808080808080808011
:101520000309090601FF80404040204040408005FB
:10153000030306000248A890FF20746F6F206C6FB1
:101540006E6720657874727573696F6E207072654E
:1015500076656E7465640A0048617264636F6465E1
:10156000642044656661756C742053657474696E9B
:101570006773204C6F616465640A00000048420094
:101580000048420000A041000034420000C8410071
:1015900000C8420000C842F0F7FB43000060420070
:1015A000007A44F4010000F401000014000000106F
:1015B0002700001027000020204D393036003B2046
:1015C0000020204D35363920533100546F6F6C2D7B
:1015D0006368616E67696E673A0054312045005454
:1015E00030204500447269766572207374657070AE
:1015F000696E67206D6F64653A00205431204500A4
:1016000020543020450053746570706572206472F8
:10161000697665722063757272656E743A00202077
:101620004D3235302043004C434420436F6E74727A
:101630006173743A0020440020490020204D33306B
:10164000312050005049442073657474696E67738B
:101650003A0020460020420020480020204D31342E
:10166000352053004D6174657269616C2068656155
:1016700074757020706172616D65746572733A0083
:1016800020204D323138205400486F74656E64203C
:101690006F6666736574733A0020204D32303620D1
:1016A0005800486F6D65206F66667365743A002058
:1016B000530020204D323035204200416476616E67
:1016C0006365643A20423C6D696E5F7365676D6562
:1016D0006E745F74696D655F75733E20533C6D6910
:1016E0006E5F66656564726174653E20543C6D6929
:1016F0006E5F74726176656C5F6665656472617455
:10170000653E20583C6D61785F785F6A65726B3E1C
:1017100020593C6D61785F795F6A65726B3E205A33
:101720003C6D61785F7A5F6A65726B3E20453C6D07
:1017300061785F655F6A65726B3E00205200202011
:101740004D323034205000416363656C65726174C2
:10175000696F6E2028756E6974732F7332293A2071
:10176000503C7072696E745F616363656C3E2052B9
:101770003C726574726163745F616363656C3E2083
:10178000543C74726176656C5F616363656C3E00A6
:1017900020204D32303120540020204D3230312075
:1017A00058004D6178696D756D20416363656C65A6
:1017B000726174696F6E2028756E6974732F73324D
:1017C000293A0020450020204D323033205400209B
:1017D000204D3230332058004D6178696D756D2091
:1017E0006665656472617465732028756E697473CB
:1017F0002F73293A005374657073207065722075D9
:101800006E69743A0020204D32303020530020445D
:101810000020204D32303020540020446973616232
:101820006C65640A0046696C616D656E7420736551
:101830007474696E67733A0020204D313439204347
:10184000203B20556E69747320696E2043656C736C
:101850006975730A0020286D6D29002020473231F8
:10186000202020203B20556E69747320696E206D06
:101870006D0024F4D43050C38E20C2A24017828B56
:101880007011127A910D816CD90AA861E108C758CC
:101890006607615143061E4B5D05C145A7041A4109
:1018A0001104093D9803713931034036DB02653379
:1018B0009102D4305402802E1D02632CEE01752A51
:1018C000C501B028A001102781018F2564012B24B8
:1018D0004B01E0223401AC211F018D200D01801F3E
:1018E000FC00841EED00971DDF00B81CD200E61B33
:1018F000C600201BBC00641AB200B219A8000A1965
:10190000A0006A189900D117910040178B00B516F6
:10191000840031167E00B31579003A157300C714A0
:101920006F0058146A00EE136600881363002513D5
:101930005E00C7125B006C12570015125400C111F3
:10194000510070114F0021114B00D61049008D102D
:1019500047004610440002104200C00F4000800FB4
:101960003E00420F3C00060F3B00CB0E3800930EAA
:1019700037005C0E3500270E3400F30D3200C10D28
:101980003100900D3000600D2E00320D2D00050D40
:101990002C00D90C2B00AE0C2900850C29005C0C06
:1019A0002700350C27000E0C2600E80B2400C40B82
:1019B0002400A00B23007D0B23005A0B2100390BC0
:1019C0002100180B2000F80A1F00D90A1E00BB0ACC
:1019D0001E009D0A1D00800A1D00630A1C00470AA4
:1019E0001B002C0A1B00110A1A00F7091A00DD0956
:1019F0001900C4091900AB091900920917007B09E5
:101A00001800630917004C09160036091600200952
:101A100016000A091500F5081500E0081400CC08A6
:101A20001400B8081400A4081400900813007D08DE
:101A300012006B0813005808120046081200340800
:101A40001100230811001208110001081100F0070D
:101A50001000E0071000D0071000C0071000B0070A
:101A60000F00A107100091070E0083070F007407F5
:101A70000F0065070E0057070E0049070E003B07D1
:101A80000D002E070E0020070D0013070D0006079E
:101A90000D00F9060C00ED060D00E0060C00D40662
:101AA0000C00C8060C00BC060C00B0060C00A40616
:101AB0000B0099060C008D060B0082060B007706C2
:101AC0000B006C060B0061060A0057060B004C0663
:101AD0000A0042060A0038060A002E060A002406FA
:101AE0000A001A060A001006090007060A00FD058A
:101AF0000900F4050900EB050900E2050900D90514
:101B00000900D0050900C7050900BE050900B50593
:101B10000800AD050800A50509009C05080094050E
:101B200008008C050800840508007C050800740581
:101B300008006C050700650508005D0507005605EF
:101B400008004E0507004705070040050800380556
:101B50000700310507002A050700230507001C05BB
:101B60000600160507000F05070008050600020518
:101B70000700FB040600F5040700EE040600E80475
:101B80000600E2040700DB040600D5040600CF04CB
:101B90000600C9040600C3040600BD040600B7041D
:101BA0000600B1040500AC040600A6040600A0046B
:101BB00005009B04060095040500900406008A04B5
:101BC000050085040500800406007A0405007504FC
:101BD0000500700405006B0405006604050061043F
:101BE00005005C04050057040500520405004D047F
:101BF000050048040500430405003E0404003A04BF
:101C0000050035040500300404002C0405002704F9
:101C10000400230405001E0404001A040400160432
:101C20000500110404000D04040009040500040467
:101C3000040000040400FC030400F8030400F4039F
:101C40000400F0030400EC030400E8030400E403D0
:101C50000400E0030400DC030400D8030400D40300
:101C60000400D0030400CC030400C8030300C50330
:101C7000030024F404D9201BC40C5C0E9804C4098E
:101C80005F0265077101F405F900FB04B300480425
:101C90008700C10369005803550003034500BE02D5
:101CA0003A008402310053022A002902250004026E
:101CB0002000E4011C00C8011900AF0117009801C1
:101CC0001400840113007101100061011000510122
:101CD0000E0043010D0036010B002B010B0020010B
:101CE0000B00150109000C01090003010800FB00AD
:101CF0000800F3000800EB000700E4000600DE0027
:101D00000600D8000600D2000600CC000500C7007F
:101D10000500C2000500BD000400B9000400B500C4
:101D20000400B1000400AD000400A9000400A500F7
:101D30000300A20003009F0004009B000300980022
:101D400003009500020093000300900003008D0043
:101D500002008B000300880002008600020084005D
:101D60000300810002007F0002007D0002007B0072
:101D70000200790002007700010076000200740082
:101D8000020072000100710002006F0002006D008D
:101D900001006C0002006A00010069000200670097
:101DA000010066000100650001006400020062009D
:101DB000010061000100600001005F0002005D00A1
:101DC00001005C0001005B0001005A0001005900A5
:101DD00001005800010057000100560001005500A5
:101DE00001005400010053000000530001005200A4
:101DF000010051000100500001004F0001004E00A1
:101E000000004E0001004D0001004C0001004B009D
:101E100000004B0001004A00010049000100480099
:101E20000000480001004700010046000000460095
:101E3000010045000000450001004400010043008E
:101E40000000430001004200000042000100410088
:101E5000000041000100400001003F0000003F0081
:101E600001003E0000003E0001003D0000003D007A
:101E700001003C0000003C0000003C0001003B0071
:101E800000003B0001003A0000003A000100390068
:101E90000000390001003800000038000000380060
:101EA0000100370000003700010036000000360056
:101EB000000036000100350000003500000035004C
:101EC0000100340000003400000034000100330041
:101ED0000000330000003300010032000000320037
:101EE000000032000100310000003100000031002C
:101EF00001003000000030000000300001002F0021
:101F000000002F0000002F0000002F0001002E0015
:101F100000002E0000002E0001002D0000002D000A
:101F200000002D0000002D0001002C0000002C00FE
:101F300000002C0000002C0001002B0000002B00F2
:101F400000002B0000002B0001002A0000002A00E6
:101F500000002A0000002A000100290000002900DA
:101F600000002900000029000000290001002800CD
:101F700000002800000028000000280000002800C1
:101F800001002700000027000000270000002700B4
:101F900000002700010026000000260000002600A7
:101FA000000026000000260001002500000025009A
:101FB000000025000000250000002500000025008D
:101FC0000100240000002400000024000000240080
:101FD0000000240001002300000023000000230073
:101FE0000000230000002300000023000000230065
:101FF0000100220000002200000022000000220058
:102000000000220000002200010021000000210049
:10201000000021000000210000002100000021003C
:10202000000021000100200000002000000020002E
:102030000000200000002000000020000000200020
:102040000000200001001F0000001F0000001F0012
:1020500000001F0000001F0000001F0000001F0004
:1020600001001E0000001E0000001E0000001E00F7
:102070000000043700001E290000511B000058100A
:10208000000010090000CC040000780200004101AB
:10209000000020436F756E7420583A0045320042AC
:1020A000656400453100626564002C2073797374A7
:1020B000656D2073746F707065642120486561746C
:1020C00065725F49443A200048656174696E672013
:1020D0004661696C65640048656174696E67206675
:1020E00061696C6564004572723A204D41585445EF
:1020F0004D50004D415854454D50207472696767EA
:1021000065726564004572723A204D494E54454DE2
:1021100050004D494E54454D5020747269676765B3
:1021200072656400202F002040002042403A0020C9
:10213000403A00496E76616C696420657874727506
:102140006465720A0041637469766520457874722B
:10215000756465723A2000026D61726C696E667713
:102160002E6F726700322E302E392E31001FFFFF86
:10217000FFFFFFFF600000000001FF4000000000C3
:1021800000FF8000000000007F83CF00000C303F84
:1021900087FF80000C301F867980000C000F8C3088
:1021A000C7838C30E78C30CFC7CC31F38C30DCEC7C
:1021B000EC33B98C30D86C6C33198C30D06C0C3358
:1021C000198C30D86C0C33198C30DC6C0E3B198CAC
:1021D00030CF7C079F198C30C77C038F19400000DB
:1021E00000000002600000000000061FFFFFFFFF6C
:1021F000FFF81000600350012C0190012201D00172
:10220000180110020E0170020401E002FA006003DE
:10221000F0000004E600B004DC00A005D200B00627
:10222000C8000008BE00A009B400800BAA00D00DB1
:10223000A00090109600C0138C0070178200901BB5
:10224000780010206E00C0246400E02D500080351E
:102250003C00A03A2800A03D1400003F0000A03F31
:10226000ECFF2020506C616E6E657242756666658B
:102270007242797465733A20002046726565204D7C
:10228000656D6F72793A2000436F6D70696C65649B
:102290003A2053657020323920323032310A002022
:1022A0004C61737420557064617465643A203230F7
:1022B00032312D30362D3237207C20417574686FD5
:1022C000723A20286E6F6E652C2064656661756CAD
:1022D0007420636F6E666967290A004D61726C69CC
:1022E0006E20322E302E392E310A0020536F667444
:1022F000776172652052657365740A0020576174B6
:102300006368646F672052657365740A00204272C7
:102310006F776E206F75742052657365740A0020A4
:1023200045787465726E616C2052657365740A003D
:10233000506F77657255700A0073746172740A0089
:10234000456E6473746F70730025532025632025D8
:102350006320256320256300205A3A0020593A0063
:1023600020583A00656E6473746F707320686974E6
:102370003A2000434F4D4D554E49434154494F4E2D
:102380000044525952554E004552524F5253004943
:102390004E464F004543484F0000002100240027CF
:1023A000002A002D00300033000101000004010765
:1023B000010A01000020002300260029002C002F24
:1023C00000320000010000030106010901000022A3
:1023D00000250028002B002E0031003400020100EF
:1023E00000050108010B010505050507050808089A
:1023F00008020202020A0A08080404040401010196
:10240000010101010103030303030303030407079D
:10241000070C0C0C0C0C0C0C0C020202020606063B
:1024200006060606060B0B0B0B0B0B0B0B01021023
:1024300020200808102040102040800201020108DE
:10244000040201010204081020408080402010088E
:1024500004020180040201804020100804020108E7
:102460000402010102040810204080010204081047
:10247000204080004D6F76652025736D6D004D6F97
:10248000766520302E316D6D004D6F766520316D93
:102490006D004D6F76652031306D6D004D6F766546
:1024A0002041786973004578747275646572004DD7
:1024B0006F7665205A004D6F76652059004D6F7616
:1024C000652058006F6B00737072656164437963B7
:1024D0006C6500737465616C746843686F7000208C
:1024E000647269766572206D6F64653A0900737075
:1024F000726561644379636C6500737465616C74C3
:102500006843686F700020647269766572206D6F31
:1025100064653A09007370726561644379636C6540
:1025200000737465616C746843686F700020647236
:1025300069766572206D6F64653A09007370726523
:1025400061644379636C6500737465616C7468439E
:10255000686F700020647269766572206D6F6465C3
:102560003A09007370726561644379636C65007346
:102570007465616C746843686F700020647269767A
:102580006572206D6F64653A090020647269766532
:10259000722063757272656E743A200020647269ED
:1025A0007665722063757272656E743A20002064DD
:1025B00072697665722063757272656E743A200076
:1025C000206472697665722063757272656E743A02
:1025D0002000206472697665722063757272656E80
:1025E000743A2000454550524F4D20646973616232
:1025F0006C65640A00486F6D65202573257325732B
:10260000204669727374004F666673657473204167
:1026100070706C696564004572723A20546F6F2067
:102620006661722100546F6F206661722066726F5E
:102630006D207265666572656E636520706F696E88
:10264000740A0000007A4300007A430000A0434C63
:10265000434420436F6E74726173743A20002064A7
:102660003A0020693A0020703A00496E76616C6940
:10267000642065787472756465720A003A200020DF
:10268000536572766F2000206F7574206F6620721C
:10269000616E67650A00536572766F200020466C94
:1026A0006F773A200046523A00486F74656E642096
:1026B0006F6666736574733A004F4646004F4E006E
:1026C00020580020204D61783A2000200020204D25
:1026D000696E3A2000536F667420656E6473746F80
:1026E00070733A20002059004D32303620580020B7
:1026F0005400205200416363656C65726174696FB8
:102700006E3A2050004D31343520533C696E64657B
:10271000783E206F7574206F662072616E67652049
:1027200028302D31290A002F2F004D4541545041AA
:10273000434B00434F4F4C45525F54454D5045521B
:102740004154555245004348414D4245525F54451E
:102750004D504552415455524500424142595354FF
:10276000455050494E470041524353004D4F544944
:102770004F4E5F4D4F44455300544845524D414CD8
:102780005F50524F54454354494F4E004C4F4E47B3
:102790005F46494C454E414D45004155544F5245C9
:1027A000504F52545F53445F535441545553005358
:1027B000445F5752495445005245504541540053D7
:1027C00044434152440050524F4D50545F53555072
:1027D000504F525400484F53545F414354494F4E59
:1027E0005F434F4D4D414E445300454D4552474583
:1027F0004E43595F50415253455200434153455F48
:102800004C494748545F4252494748544E455353F8
:1028100000544F47474C455F4C4947485453005379
:102820004F4654574152455F504F5745520042550D
:10283000494C445F50455243454E54004C45564523
:102840004C494E475F44415441005A5F50524F42F9
:10285000450052554E4F5554004155544F4C455626
:10286000454C005052494E545F4A4F420050524F1F
:102870004752455353004155544F5245504F5254BF
:102880005F54454D50004155544F5245504F52549E
:102890005F504F5300564F4C554D455452494300DD
:1028A000454550524F4D0042494E4152595F4649AD
:1028B0004C455F5452414E53464552005345524990
:1028C000414C5F584F4E5F584F4646004649524D67
:1028D000574152455F4E414D453A4D61726C696EAC
:1028E00020322E302E392E31202853657020323977
:1028F00020323032312031363A33353A32342920E1
:10290000534F555243455F434F44455F55524C3AF0
:102910006769746875622E636F6D2F4D61726C69A3
:102920006E4669726D776172652F4D61726C696E6A
:102930002050524F544F434F4C5F56455253494FCE
:102940004E3A312E30204D414348494E455F54594F
:1029500050453A3344205072696E74657220455870
:102960005452554445525F434F554E543A322055C8
:102970005549443A63656465326132662D3431618C
:10298000322D343734382D396231322D6335356389
:1029900036326633363766660A0033442050726931
:1029A0006E746572204F46462E004D3131332053F0
:1029B000006F66660094238F23882381237323444A
:1029C000454255473A006F6B002569730025696DD4
:1029D00020256973002569682025696D20256973A4
:1029E00000256964202569682025696D20256973A3
:1029F0000025697920256964202569682025696D8D
:102A000020256973005072696E742074696D653A8F
:102A100020004E6F204D6F76652E00436C69636B0E
:102A200020746F20526573756D652E2E2E00536CC9
:102A30006565702E2E2E0047322F47332062616469
:102A400020706172616D65746572730A0020746F25
:102A50006F206C6F6E6720657874727573696F6E26
:102A60002070726576656E7465640A00486F6D69E2
:102A70006E67204661696C65640001010130780071
:102A8000220A00556E6B6E6F776E20636F6D6D61FD
:102A90006E643A2022003344205072696E7465726D
:102AA0002052656164792E005072696E74696E6798
:102AB0002E2E2E005072696E7420506175736564FD
:102AC0000020453A00205A3A0020593A00583A006E
:102AD000205A00627573793A2070617573656420BD
:102AE000666F7220696E7075740A00627573793A48
:102AF0002070617573656420666F722075736572EE
:102B00000A00627573793A2070726F636573736936
:102B10006E670A0000000A0B02090C0D0E0807037D
:102B200004010000000000000000000000000000A0
:102B30000000000000000000000000000000000095
:102B40001211100000000000000000000000000052
:102B5000000000000000000000004D313132205321
:102B6000687574646F776E0053544F505045442E0F
:102B700020005072696E7465722073746F70706596
:102B8000642064756520746F206572726F72732E95
:102B90002046697820746865206572726F722061C2
:102BA0006E6420757365204D39393920746F207239
:102BB0006573746172742E202854656D706572613E
:102BC000747572652069732072657365742E205365
:102BD000657420697420616674657220726573740F
:102BE000617274696E67290A004E6F2043686563DD
:102BF0006B73756D2077697468206C696E65206EE3
:102C0000756D6265722C204C617374204C696E6521
:102C10003A2000636865636B73756D206D69736D31
:102C2000617463682C204C617374204C696E653A42
:102C300020004C696E65204E756D62657220697367
:102C4000206E6F74204C617374204C696E65204E49
:102C5000756D6265722B312C204C617374204C6948
:102C60006E653A20004D3131300053657269616CF8
:102C700020737461747573206D69736D617463681A
:102C80000A002121204B494C4C2063617573656417
:102C9000206279204B494C4C20627574746F6E2F02
:102CA00070696E0A002121204B494C4C20636175EC
:102CB00073656420627920746F6F206D756368207E
:102CC000696E6163746976652074696D65202D2075
:102CD00063757272656E7420636F6D6D616E643AB8
:102CE00020006F6B0A00526573656E643A200054D1
:102CF0004845524D414C2052554E41574159005480
:102D00006865726D616C2052756E61776179000043
:102D10000AE911241FBECFEFD1E2DEBFCDBF00E034
:102D20000CBF13E0A0E0B2E0E4E4F6EF01E00BBF7B
:102D300002C007900D92AE33B107D9F722E1AEE39E
:102D4000B3E001C01D92A733B207E1F716E1C9E86D
:102D5000D6E100E006C021970109802FFE010E9404
:102D6000E8F7C838D10780E00807A9F70E94DAE33E
:102D70000C9420FB0C9400007F928F929F92AF9254
:102D8000BF92CF92DF92EF92FF920F931F93CF9358
:102D9000DF937090A006CCE6D6E098E3C92E92E0CF
:102DA000D92E2FE5E22E22E0F22E08E916E0772058
:102DB00009F45EC0F80180809180A280B38020E099
:102DC00030E0A901C501B4010E9437F1882309F45C
:102DD0004FC020E030E040E05FE3C501B4010E9455
:102DE0009CF19B01AC010E949CF12BED3FE049E47A
:102DF00050E40E949CF19B01AC0160E070E080E82F
:102E00009FE30E9403F94B015C0189929992A99278
:102E1000B992F601619171916F01072E000C880B38
:102E2000990B0E943DF12AE037ED43E25CE30E94FA
:102E30009CF1A50194010E949CF1F70161937193AB
:102E4000819391937F010C5F1F4FF6E0C437DF073A
:102E500009F0ADCFDF91CF911F910F91FF90EF90CF
:102E6000DF90CF90BF90AF909F908F907F9008950C
:102E7000812C912C80E8A82E8FE3B82EC6CF0F931B
:102E80001F93E62FDC01FC910F2F10E030E020E0D3
:102E9000062E04C036952795179507950A94D2F704
:102EA00000FF1CC000916D0510E030E020E004C080
:102EB00036952795179507956A95D2F700FF0EC0AE
:102EC00041E050E060E070E004C0440F551F661F11
:102ED000771FEA95D2F740954F234C931F910F919E
:102EE0000895CF92DF92EF92FF92FC01C080D180D3
:102EF000E280F38020E030E0A901C701B6010E9422
:102F000037F187FF68C0C701B601905820E030E074
:102F100040E251E40E949CF120E030E040EA50E4BD
:102F20000E9427F820E030E040E251E40E9403F9DB
:102F30000E946BF99B0160E22031F7E23F0730F01D
:102F4000C90160E177E20E94C1F7605D6093FD0412
:102F5000283E83E0380708F445C0C90168EE73E0F5
:102F60000E94C1F7CB016AE070E00E94C1F7805D6A
:102F70008093FE0480E22436310558F0C90164E6EE
:102F800070E00E94C1F7CB016AE070E00E94C1F7D7
:102F9000805D8093FF0480E22A30310558F0EAE03A
:102FA000F0E0C901BF010E94C1F7CB01BF010E943F
:102FB000C1F7805D80930005C9016AE070E00E945E
:102FC000C1F7805D809301058DEF94E0FF90EF9055
:102FD000DF90CF90089520E030E040E251E4C70157
:102FE000B60198CF80E2C4CF8F929F92AF92BF92EA
:102FF000CF92DF92EF92FF92FC01C080D180E280FD
:10300000F38020E030E040E251E4C701B6010E94C5
:103010009CF120E030E040E251E40E949CF14B0141
:103020005C0120E030E0A901C701B6010E9437F140
:1030300020E030E040EA50E487FF04C020E030E0C8
:1030400040EA50ECC501B4010E9427F820E030E0CE
:1030500040E251E40E9403F90E946BF99B018BE26C
:1030600037FF05C022273327261B370B8DE28093BD
:10307000FC04C90168EE73E00E94D5F7CB01EAE0D9
:10308000F0E0BF010E94D5F7805D8093FD04C90187
:1030900064E670E00E94D5F7CB01BF010E94D5F72E
:1030A000805D8093FE04C901BF010E94D5F7282FDF
:1030B000CB01BF010E94D5F7805D8093FF048EE2B3
:1030C00080930005205D209301058CEF94E0FF9034
:1030D000EF90DF90CF90BF90AF909F908F9008952A
:1030E0009C0197FF26C0EE27FF27E81BF90B2D391F
:1030F0008FEF38070CF05DC08DE28093FE04CF01A6
:1031000064E670E00E94D5F7CB012AE030E0B90117
:103110000E94D5F7805D8093FF04CF01B9010E9422
:10312000D5F7CB01B9010E94D5F7805D80930005EA
:103130002AC0283E83E03807B4F1C90168EE73E085
:103140000E94D5F7CB01EAE0F0E0BF010E94D5F77D
:10315000805D8093FE04C90164E670E00E94D5F7AB
:10316000CB01BF010E94D5F7805D8093FF04C901A8
:10317000BF010E94D5F7CB01BF010E94D5F7805D4A
:1031800080930005F901CF016AE070E00E94D5F755
:10319000805D809301058EEF94E008958DE237FD08
:1031A000C5CF80E2C3CFF90180E2243631050CF0AF
:1031B000A4CF80E28093FE048093FF04EA30F105FF
:1031C0006CF38DE237FF80E28093FF04CF016AE069
:1031D00070E00E94D5F7605D60930005D4CF9C013C
:1031E00097FD2DC080E2243631055CF0C90164E60C
:1031F00070E00E94D5F7CB016AE070E00E94D5F73D
:10320000805D8093FF0480E22A3031055CF0EAE0C3
:10321000F0E0C901BF010E94D5F7CB01BF010E94B8
:10322000D5F7805D80930005C9016AE070E00E94D7
:10323000D5F7805D809301058FEF94E00895319577
:10324000219531098DE2DDCF9C01283E83E03807CE
:10325000D0F1C90168EE73E00E94C1F7CB016AE0CA
:1032600070E00E94C1F7805D8093FE0480E2243606
:10327000310558F0C90164E670E00E94C1F7CB0146
:103280006AE070E00E94C1F7805D8093FF0480E2F5
:103290002A30310558F0EAE0F0E0C901BF010E9490
:1032A000C1F7CB01BF010E94C1F7805D809300058B
:1032B000C9016AE070E00E94C1F7805D809301055A
:1032C0008EEF94E0089580E2CFCF24E6829FC00184
:1032D000112481589F4F6FEF70E00E94D5F7262F81
:1032E00081E3643609F080E28093FE0490E22A30A4
:1032F00040F03AE0822F632F0E94A8F70E94A8F7BF
:10330000905D9093FF04822F6AE00E94A8F7905D81
:103310009093000585E2809301058EEF94E0089577
:103320000F931F93CF93DF938091690690E0EC0198
:10333000CC0FDD1FCC0FDD1F8E01015A1D4F880FF2
:10334000991FFC01E85CFD4F60817181072E000C24
:10335000880B990B0E943DF12AE037ED43E25CE3D4
:103360000E949CF1C459D94F288139814A815B81DF
:103370000E949CF1F8016083718382839383DF91C3
:10338000CF911F910F9108950F931F93CF93DF93C8
:103390008091F10790E0EC01CC0FDD1FCC0FDD1F19
:1033A0008E01015A1D4F880F991FFC01E85CFD4FEB
:1033B00060817181072E000C880B990B0E943DF1F2
:1033C0002AE037ED43E25CE30E949CF1C459D94FF7
:1033D000288139814A815B810E949CF1F8016083D8
:1033E000718382839383DF91CF911F910F91089511
:1033F000CF93DF93EC01CB01BA010E943DF12DEC9C
:103400003CEC4CEC5DE30E9403F90E9470F9798377
:103410006883DF91CF9108950E943DF12DEC3CEC43
:103420004CEC5DE30E9403F90E9470F9CB010CCFD4
:1034300080916906811104C080915F068093F30733
:1034400008958F929F92AF92BF92CF92DF92EF92A8
:10345000FF92CF936B017C0120E030E0A9010E9434
:1034600037F187FFA3C06DEB77E386E095EBA7010B
:1034700096010E9427F86B017C0120E030E040E2D9
:1034800051E40E949CF120E030E048EC52E40E94BC
:103490009CF14B015C0120E030E040E251ECC701BF
:1034A000B6010E9437F1181654F420E030E048ECE1
:1034B00052E4C701B6010E944EFA87FD8BC020E09E
:1034C00030E0A901C701B6010E9437F187FF73C040
:1034D00060E070E080EA90ECA50194010E9427F87A
:1034E00020E030E040E251E40E9403F90E946BF9D1
:1034F0006B017C01F7FC64C020E137E240E050E062
:103500000E946DF7CA01B9012AE030E040E050E0C6
:103510000E946DF7605D6093FC04C701B60128EE60
:1035200033E040E050E00E946DF79AE0892E912C44
:10353000A12CB12CCA01B901A50194010E946DF71B
:10354000605D6093FD04C701B60124E630E040E011
:1035500050E00E946DF7CA01B901A50194010E94D3
:103560006DF7605D6093FE048EE28093FF04C701F7
:10357000B601A50194010E946DF7C62FCA01B901D9
:10358000A50194010E946DF7605D60930005C05D28
:10359000C09301058CEF94E0CF91FF90EF90DF9006
:1035A000CF90BF90AF909F908F9008956DEB77E391
:1035B00086E095E35CCF60E070E080EA90E48CCF39
:1035C000F094E094D094C094C11CD11CE11CF11C77
:1035D0006DE2A1CF20E030E0A901C701B6010E9451
:1035E00037F187FF6AC060E070E080EA90ECA501E7
:1035F00094010E9427F820E030E040E251E40E946C
:1036000003F90E946BF94B015C0120E030E0A90155
:10361000C701B6010E944EFA87FD0BC020E030E0E2
:1036200040E251E4C701B6010E9437F160E287FD34
:1036300013C0B7FC47C0C501B40128EE33E040E039
:1036400050E00E946DF7CA01B9012AE030E040E085
:1036500050E00E946DF7605D6093FD04C501B40108
:1036600024E630E040E050E00E946DF78AE0C82E8A
:10367000D12CE12CF12CCA01B901A70196010E94BD
:103680006DF7605D6093FE048EE28093FF04C501D8
:10369000B401A70196010E946DF7C62FCA01B901B6
:1036A000A70196010E946DF7605D60930005C05D03
:1036B000C09301058DEF94E06FCF60E070E080EA89
:1036C00090E495CFB094A09490948094811C911C28
:1036D000A11CB11C6DE2C0CFCF92DF92EF92FF929E
:1036E0006B017C0120E030E0A9010E9437F187FDE9
:1036F00025C06DEB77E386E095E3A70196010E9474
:1037000027F86B017C0120E030E0A9010E9437F12D
:1037100020E030E040E05FE387FF04C020E030E0DD
:1037200040E05FEBC701B6010E9427F80E946BF9E9
:10373000CB01FF90EF90DF90CF9051CD6DEB77E311
:1037400086E095EBDACFCF93DF93EC01CB01BA01A2
:103750000E943DF129EC38EC48EC5EE30E9403F94D
:1037600020E030E040E05FE30E9427F80E9470F91B
:103770006883DF91CF9108950E943DF129EC38ECE8
:1037800048EC5EE30E9403F920E030E040E05FE3B4
:103790000E9427F80E9470F9862F97CD80913602FB
:1037A000909137020C94B039E091690686E0E80206
:1037B000F0011124E65EF84F80915F0690E095835A
:1037C000848308958091F107882369F0809118051A
:1037D0008770873041F483E59EE090938005809365
:1037E0007F051092F1070895CF93DF9300D01F92C9
:1037F000CDB7DEB70E9470F90E943BF169837A83EE
:103800008B839C83CE0101966CDB0F900F900F9001
:103810000F90DF91CF9108958F929F92AF92BF92B8
:10382000CF92DF92EF92FF92CF936B017C0120E069
:1038300030E0A9010E9437F187FD9FC06DEB77E36F
:1038400086E095E3A70196010E9427F86B017C01B1
:1038500020E030E040E251E40E949CF120E030E0C2
:1038600048EC52E40E949CF14B015C0120E030E006
:10387000A901C701B6010E9437F120E030E040EA1B
:1038800050E487FF04C020E030E040EA50ECC5017E
:10389000B4010E9427F820E030E040E251E40E94A9
:1038A00003F90E946BF96B017C018BE2F7FE09C002
:1038B000F094E094D094C094C11CD11CE11CF11C84
:1038C0008DE28093FB04C701B60120E137E240E0BE
:1038D00050E00E946DF78AE0882E912CA12CB12C2B
:1038E000CA01B901A50194010E946DF7605D609362
:1038F000FC04C701B60128EE33E040E050E00E942E
:103900006DF7CA01B901A50194010E946DF7605DD0
:103910006093FD04C701B60124E630E040E050E0CA
:103920000E946DF7CA01B901A50194010E946DF7CB
:10393000605D6093FE048EE28093FF04C701B601D0
:10394000A50194010E946DF7C62FCA01B901A50116
:1039500094010E946DF7605D60930005C05DC093A7
:1039600001058BEF94E0CF91FF90EF90DF90CF9027
:10397000BF90AF909F908F9008956DEB77E386E0B6
:1039800095EB60CF8F929F92AF92BF92CF92DF92D2
:10399000EF92FF92CF936B017C0120E030E0A90110
:1039A0000E9437F187FDAAC06DEB77E386E095E3CF
:1039B000A70196010E9427F86B017C0120E030E00E
:1039C000A9010E9437F187FF9EC0C701B601905838
:1039D00020E030E040E251E40E949CF120E030E041
:1039E00040E251E40E949CF120E030E040EA50E4E3
:1039F0000E9427F820E030E040E251E40E9403F901
:103A00000E946BF96B017C0180E28093FB0460E211
:103A100080E1C81687E2D806E104F1048CF0C70102
:103A2000B60120E137E240E050E00E946DF7CA01A4
:103A3000B9012AE030E040E050E00E946DF7605D9F
:103A40006093FC0460E288EEC81683E0D806E104C7
:103A5000F1048CF0C701B60128EE33E040E050E0FD
:103A60000E946DF7CA01B9012AE030E040E050E061
:103A70000E946DF7605D6093FD0460E284E6C81605
:103A8000D104E104F1048CF0C701B60124E630E072
:103A900040E050E00E946DF7CA01B9012AE030E031
:103AA00040E050E00E946DF7605D6093FE048AE0A4
:103AB000882E912CA12CB12CC701B601A50194012F
:103AC0000E946DF7C62FCA01B901A50194010E9499
:103AD0006DF7605D6093FF048EE280930005C05D2A
:103AE000C09301058BEF94E0CF91FF90EF90DF90B2
:103AF000CF90BF90AF909F908F9008956DEB77E33C
:103B000086E095EB55CF20E030E040E251E4C7017C
:103B1000B60162CFCF92DF92EF92FF92CF93DF9305
:103B200000D01F92CDB7DEB76B017C0120E030E002
:103B3000A9010E9437F187FD1AC06DEB77E386E09B
:103B400095E3A70196010E9427F869837A838B8306
:103B50009C83CE010196C5D90F900F900F900F90C6
:103B6000DF91CF91FF90EF90DF90CF9008956DEBB4
:103B700077E386E095EBE5CF8F929F92AF92BF926D
:103B8000CF92DF92EF92FF92CF936B017C0120E006
:103B900030E0A9010E9437F187FD93C06DEB77E318
:103BA00086E095E3A70196010E9427F86B017C014E
:103BB00020E030E040E251E40E949CF120E030E05F
:103BC0004AE754E40E949CF14B015C0120E030E0A4
:103BD000A901C701B6010E9437F120E030E040EAB8
:103BE00050E487FF04C020E030E040EA50ECC5011B
:103BF000B4010E9427F820E030E040E251E40E9446
:103C000003F90E946BF96B017C01C114D104E1043A
:103C1000F10409F45BC0F7FE59C0F094E094D0942D
:103C2000C094C11CD11CE11CF11C8DE28093FC04EA
:103C3000C701B60128EE33E040E050E00E946DF786
:103C40008AE0882E912CA12CB12CCA01B901A501C2
:103C500094010E946DF7605D6093FD048EE2809395
:103C6000FE04C701B60124E630E040E050E00E94C7
:103C70006DF7CA01B901A50194010E946DF7605D5D
:103C80006093FF04C701B601A50194010E946DF77E
:103C9000C62FCA01B901A50194010E946DF7605DAC
:103CA00060930005C05DC09301058CEF94E0CF9157
:103CB000FF90EF90DF90CF90BF90AF909F908F904C
:103CC00008956DEB77E386E095EB6CCF80E2AECFA5
:103CD000CF93DF93EC01CB01BA010E943DF120E0CC
:103CE00030E040E251E40E9403F9688379838A83DB
:103CF0009B83DF91CF9108950E943DF120E030E059
:103D000040E251E40E9403F93DCECF93DF93EC01F2
:103D1000CB01BA010E943DF120E030E048EC52E4D2
:103D20000E9403F9688379838A839B83DF91CF9113
:103D30000895CF93DF93EC01CB01BA010E943DF1CE
:103D400020E030E048EC52E40E9403F96883798374
:103D50008A839B83DF91CF9108950E943DF120E0FB
:103D600030E048EC52E40E9403F956CDCF93DF9344
:103D7000EC01CB01BA010E943DF1688379838A830B
:103D80009B83DF91CF910895CF93DF93EC01CB011B
:103D9000BA010E943DF1688379838A839B83DF9116
:103DA000CF9108950E943DF197CCCF93DF93EC0122
:103DB000CB01BA010E943DF12AE037ED43E25DE319
:103DC0000E9403F90E9470F9688379838A839B8338
:103DD000DF91CF9108950E943DF12AE037ED43E253
:103DE0005DE30E9403F900CDCF93DF93EC01CB019B
:103DF000BA010E943DF12AE037ED43E25DE30E9403
:103E000003F9688379838A839B83DF91CF91089537
:103E10000E943DF12AE037ED43E25DE30E9403F9A1
:103E200079CE0E943DF176CE0E943DF120E030E057
:103E300048EC52E40E9403F904CBCF93DF93EC01EA
:103E4000CB01BA010E943DF10E946BF9798368832E
:103E5000DF91CF9108950E943DF10E946BF9CB0153
:103E6000BEC9CF93DF93EC01CB01BA010E943DF1B3
:103E700020E030E04AE754E40E9403F96883798344
:103E80008A839B83DF91CF9108950E943DF120E0CA
:103E900030E04AE754E40E9403F96ECE8091E010CE
:103EA0009091E110891B8F7039F481E09091B207F5
:103EB000913019F080E0089581E00895E091DB04ED
:103EC000E63028F581E08E0F8093DB0440915706A1
:103ED000509158066091590670915A0620915C06DF
:103EE000909150068091E10439E0E39FF0011124A4
:103EF000EB56FB4FA0911A11B0911B11B183A08317
:103F000042835383648375832683978380870895D0
:103F1000FC0184910895FC0180E09491992331F093
:103F2000907C903809F08F5F3196F7CF0895FC01AF
:103F300080810895FC0180E09191992329F0907C83
:103F40009038D1F38F5FF8CF0895089590E080E026
:103F50000895282F9091A507833021F495FD0FC077
:103F600094FD0FC0892F90E0B0E0A0E004C0B695AA
:103F7000A795979587952A95D2F78170089581E046
:103F8000089580E00895FC01DB0112962D913D918A
:103F90004C91149722833383448315968C91159703
:103FA000858316962D913D914C91189726833783E2
:103FB000408719964D915D916D917C911C97418739
:103FC0005287638774871D964D915D916D917C91A9
:103FD0005097458756876787708B8DE093E0918374
:103FE000808351968D919C915297928B818B5396A1
:103FF0004D915D916D917C915697438B548B658B60
:10400000768B57968C915797878B58968D919C916C
:104010005997918F808F5A968D919C915B97938F32
:10402000828F5C968D919C915D97958F848F5E9623
:104030004D915D916D917C919197468F578F60A3C3
:1040400071A392964D915D916D917C91959742A34C
:1040500053A364A375A396964D915D916D917C9148
:10406000999746A357A360A771A79A968D919C91A3
:104070009B9793A782A79C968D919C919D9795A7BE
:1040800084A79E968D919C919F9797A786A7D0967F
:104090008D919C91D19791AB80ABD2968C9182AB54
:1040A00008958F929F92AF92BF92EF92FF920F93DB
:1040B0001F93CF93DF93EC018B01E42EF22E8091BE
:1040C0001A1190911B118C179D07B9F124E3C03987
:1040D000D20709F03DC08750934471F40E944EC34B
:1040E0006E517B4F8F4F9F4F6093DC047093DD04C4
:1040F0008093DE049093DF04D0931B11C0931A11B8
:1041000030E020E00093570610935806209359069C
:1041100030935A06E0925C06F0925006C750D344A2
:1041200021F41092E1041092DB0482E080933E02BD
:1041300081E0809351061092DA04DF91CF911F91B4
:104140000F91FF90EF90BF90AF909F908F90089548
:1041500023E4C730D20781F680599443D1F40E94FA
:104160004EC38090DC049090DD04A090DE04B090FB
:10417000DF04681979098A099B0997FF0AC08091B1
:1041800018058770873029F489DECCECD0E28111E4
:10419000B3CFC7E0D3E4B0CF20E040E070E060E010
:1041A00085EC9EE37EDF81E08093E1041092B1070D
:1041B0001092B007089520E040E070E060E084E7EE
:1041C00092E26FCF21E02093E104FC018081918194
:1041D000A281B3818093100290931102A0931202E6
:1041E000B093130220E040E070E060E080915D0653
:1041F00090915E0656CFCF93DF9300D01F92CDB73C
:10420000DEB78DEC9CECACECBCE389839A83AB838A
:10421000BC83CE010196D6DF0F900F900F900F90C8
:10422000DF91CF910895CF93DF9300D01F92CDB748
:10423000DEB78DEC9CECACECBDE389839A83AB8359
:10424000BC83CE010196BEDF0F900F900F900F90B0
:10425000DF91CF910895CF93DF9300D01F92CDB718
:10426000DEB780E090E0A0E8BFE389839A83AB8368
:10427000BC83CE010196A6DF0F900F900F900F9098
:10428000DF91CF910895CF93DF9300D01F92CDB7E8
:10429000DEB780E090E0A0E2B1E489839A83AB834B
:1042A000BC83CE0101968EDF0F900F900F900F9080
:1042B000DF91CF910895CF92DF92EF92FF92CF934B
:1042C000C82F833011F460937C040E944EC36B01AD
:1042D0007C0124EA30E74DE75FE3609110027091C2
:1042E000110280911202909113020E9437F187FD12
:1042F00018C08AEF90E0A0E0B0E08C0D9D1DAE1DCF
:10430000BF1D80937D0490937E04A0937F04B0939F
:104310008004C0930E02CF91FF90EF90DF90CF907A
:10432000089580E090E0DC01E8CFCF93DF93C09167
:104330006A05D0916B05209729F16091660570910F
:10434000670580916805909169050E946BF96E5F21
:104350007F4F24976C177D07ACF4709350056093E2
:104360004F050E944EC36058774C8E4F9F4F60930D
:104370005105709352058093530590935405DF9136
:10438000CF91089510925105109252051092530545
:1043900010925405F4CF0F931F93CF93DF93082F00
:1043A00010E097E1899FF0011124ED53F84FC0858B
:1043B000D185209729F164817581868197810E943A
:1043C0006BF96E5F7F4F24976C177D07CCF486E006
:1043D000809FE001819FD00D1124CB5ADA4F798361
:1043E00068830E944EC360547B428E4F9F4F6A8306
:1043F0007B838C839D83DF91CF911F910F910895D3
:1044000086E0809FF001819FF00D1124EB5AFA4F56
:104410001282138214821582EECF80916906BBCF7F
:104420006091B80F81E0682783E89FE00C944F907B
:104430006091EE0F81E0682789EB9FE00C944F902C
:104440006091241081E068278FEE9FE00C944F90DC
:1044500060915A1081E0682785E290E10C944F90BA
:104460006091901081E068278BE590E10C944F906B
:104470006091B60F7091B70F83E89FE00C94368F70
:104480006091EC0F7091ED0F89EB9FE00C94368FEB
:1044900060912210709123108FEE9FE00C94368F64
:1044A000609158107091591085E290E10C94368F0C
:1044B00060918E1070918F108BE590E10C94368F87
:1044C0006BE370E483E00C94B8E16FE172E482E0A6
:1044D0000C94B8E163E272E481E00C94B8E167E225
:1044E00072E480E00C94B8E16EE370E483E00C9435
:1044F000B8E10C941CAFCF93DF9380916906909143
:10450000F107891304C0DF91CF910C941CAF8D5F2C
:1045100090E0EC01CC0FDD1FCC0FDD1FC35EDA4F46
:10452000880F991F880F991FFC01E252F94F2081D3
:1045300031814281538160E070E080E89FE30E9416
:1045400003F9688379838A839B83DF91CF910895F0
:104550000C941CAF0C941CAF0C94C5AE80916906F2
:10456000082E000C990B2091F1072817190611F459
:104570000C94C5AE08950C94C5AE0C94C5AE0C94C5
:10458000C5AEEF92FF920F931F93CF93DF93EC0191
:104590008B017A018A859B858617970731F0888180
:1045A00099810E94288C1B870A87B701888199818D
:1045B0000E9430BE2E813F81820F932F911D9F83D9
:1045C0008E8390E080E0DF91CF911F910F91FF905B
:1045D000EF9008959F92AF92BF92CF92DF92EF92A9
:1045E000FF920F931F93CF93DF93EC018B01942ED7
:1045F000A52E8A859B858617970731F0888199813A
:104600000E94288C1B870A8788859985019649F521
:10461000BC800A818E81080FC880D980D60155964A
:10462000ED91FC91C6011995B80EE92CFA2C10E019
:10463000F70121917F01211127C08E819F81810F78
:10464000911D9F838E8390E080E0DF91CF911F9139
:104650000F91FF90EF90DF90CF90BF90AF909F9021
:1046600008950E811F81692D7A2D888199810E947C
:1046700030BE800F912F911D288539852817390765
:1046800038F681E090E0E1CF4B2D602FC6010E940B
:10469000BC8D080F180FCCCFDF92EF92FF920F93D3
:1046A0001F93CF93DF93EC01D62E1CAD0BAD7C0195
:1046B00084E0E80EF11CE98DFA8DC7011995412FB0
:1046C000480F2D2D602FC7010E94BC8D9BAD890F17
:1046D0008BAF81E090E0DF91CF911F910F91FF9020
:1046E000EF90DF900895AF92BF92DF92EF92FF922A
:1046F0000F931F93CF93DF938C01EB01D42E79019D
:104700008FE0481709F488C0A5E14A17C1F1BAE063
:104710004B130EC0EC81FD8130E020E042E061E00F
:10472000C80119954CEC59E0BE01C8010E94348DB6
:104730000A80DB81C02DF2E3DF1609F4E4C0FD1529
:1047400008F493C085E1D81609F4E2C0A7E1DA16AF
:1047500009F4FCC0B4E1DB127DC0EE81FF818D81E4
:1047600090E0880F991F8E0F9F1F11928E179F0741
:10477000E1F71A82888181508B831C826BC0AA80EA
:10478000BB8047EB59E0C8010E94348DF50144819C
:10479000440F406BBE01C8010E941C8D41E0BE0168
:1047A000C8010E94248DD50116962D913C91179732
:1047B000EC81FD8115964C9166E0C801199540E0A9
:1047C000BE01C8010E942C8D47EB59E0BE01C80113
:1047D0000E94348DF5014481440F4F5F406BBE0150
:1047E000C8010E941C8D41E0BE01C8010E94248DB9
:1047F000D50115964C91159716962D913C91240F45
:10480000311DEC81FD8166E0C801199540E0BE01D3
:10481000C8010E942C8D8CCF41E0C8010E942C8DD4
:1048200040E0BE01C8010E94248D41E8BE01C801DC
:104830000E941C8DF701408150E055954795559594
:104840004795BE01C8010E941C8D40E0BE01C80111
:104850000E942C8D81E0DF91CF911F910F91FF90ED
:10486000EF90DF90BF90AF900895E6E4DE1609F474
:104870007CC0F7E4DF1609F47CC08BE3D812EACFE2
:10488000D70111969C91119713968C9138E0390FAE
:10489000813031F0833011F0392F02C0392F985018
:1048A00021E04B81491708F420E041E0391708F076
:1048B00040E091E05A81351708F490E0322F342B14
:1048C000932311F4242331F2F701128100E0D12C5B
:1048D000843048F490E0FC01E557FD4FD0808957C3
:1048E0009D4FDC010C9117FF04C0B701CE010E945F
:1048F000C18BF70180818D0D80838181800F818341
:10490000110F89F7A7CFB701CE010E94C18BA2CFAB
:1049100088819A81980F9A832981921770F59C81DA
:104920009F5F9C839B81890F821710F08FEF820F0E
:104930008B83EE81FF818D8190E0880F991F8E0F10
:104940009F1F11928E179F07E1F784CFD7011C920A
:104950008A8111968C9311978D81815012968C9338
:1049600012978B8113968C9375CF8D81F70180837D
:1049700071CF8981D7018C936DCF80E06CCFCF92BE
:10498000DF92EF92FF920F931F93CF93DF93CDB7F8
:10499000DEB72C970FB6F894DEBF0FBECDBFF090F8
:1049A0005711E09058112091620421111DC047E772
:1049B00059E06E2D8F2D0E9455BB90E080E0F80EDF
:1049C000F0925711E092581199272C960FB6F8944F
:1049D000DEBF0FBECDBFDF91CF911F910F91FF9032
:1049E000EF90DF90CF900895C0902411D0902511C2
:1049F00020E231E13A8329832F2D30E03C832B8361
:104A00002E2D30E03E832D8318861F827A8769879A
:104A10001C861B860AEE12E29E012F5F3F4F48E87C
:104A20005FE1BC01C6010E9411BBB60180E291E1C9
:104A30000E94288C8F819885C2CFCF92DF92EF920F
:104A4000FF920F931F93CF93DF93CDB7DEB72C97D1
:104A50000FB6F894DEBF0FBECDBFF0905711E090B7
:104A600058112091620421111DC047E559E06E2DB7
:104A70008F2D0E9455BB90E080E0F80EF092571108
:104A8000E092581199272C960FB6F894DEBF0FBE0E
:104A9000CDBFDF91CF911F910F91FF90EF90DF90ED
:104AA000CF900895C0902411D090251120E231E1DB
:104AB0003A8329832F2D30E03C832B832E2D30E049
:104AC0003E832D8318861F827A8769871C861B8602
:104AD0000AEE12E29E012F5F3F4F47E95FE1BC0102
:104AE000C6010E9411BBB60180E291E10E94288CB0
:104AF0008F819885C2CF0C943DBCCF92DF92EF920C
:104B0000FF920F931F93CF93DF936B017A01EC0118
:104B1000CF5BDB4F28813CE0389F8001399F100D2F
:104B2000112427FF24C0FB011182108288818F5F2E
:104B3000888388819801280F311D87FD3A95C90126
:104B40002091D910F6012817190629F024F0888140
:104B50008C300CF43CC080819181049680349C4957
:104B600008F475C0F60180819181049672C0888135
:104B70009801280F311D87FD3A95C9012091D91060
:104B80002817190699F294F28881A801480F511D3F
:104B900087FD5A95FA01EE0FFF1FE40FF51FEF5640
:104BA000FF4E808187FFC2CF8881F801E80FF11D99
:104BB00087FDFA95CF01EE0FFF1FE80FF91FEF56A3
:104BC000FF4E808160E08F770E94B5C1AFCF8081BA
:104BD00091812881A801420F511D27FD5A959A0104
:104BE000FA01EE0FFF1FE20FF31FEF56FF4E218178
:104BF0003281820F931FF70191838083888198010E
:104C0000280F311D87FD3A95F901EE0FFF1FE20FC6
:104C1000F31FEF56FF4E808187FF20C08881080F69
:104C2000111D87FD1A95F801EE0FFF1FE00FF11F10
:104C3000EF56FF4E808161E08F77DF91CF911F911A
:104C40000F91FF90EF90DF90CF900C94B5C180E46E
:104C50009CE9F701918380838FEF8883DF91CF9167
:104C60001F910F91FF90EF90DF90CF9008954F929A
:104C70005F926F927F928F929F92AF92BF92CF92EC
:104C8000DF92EF92FF920F931F93CF93DF93CDB7F5
:104C9000DEB76A970FB6F894DEBF0FBECDBF9A8F0E
:104CA000898F5B018A01DC01D7966D917D918D9191
:104CB0009C91DA970E943BF16B017C01F501208108
:104CC0003181428153810E949CF10E94EDF82B01B9
:104CD0003C01D8012D913D914D915C91C701B601E8
:104CE0000E949CF10E94EDF84B015C01C301B201EE
:104CF0000E9470F9698B7A8B8B8B9C8B683771055E
:104D00008105910540F428E730E040E050E0298B30
:104D10003A8B4B8B5C8BC501B4010E9470F96D8797
:104D20007E878F87988B683771058105910540F4E0
:104D300088E790E0A0E0B0E08D879E87AF87B88BD2
:104D4000E98DFA8DED5BFF4F2081318142815381E6
:104D500029833A834B835C83CA01B9010E943DF1E8
:104D60002B013C0169897A898B899C890E943BF1DE
:104D700069877A878B879C8720E030E0A901C3018F
:104D8000B2010E9437F1882309F43BC1A7019601C3
:104D9000C701B6010E949CF14B015C0129853A854F
:104DA0004B855C85CA01B9010E949CF19B01AC0155
:104DB000C501B4010E9426F84B015C01A3019201D8
:104DC000C301B2010E9427F89B01AC01C501B401E7
:104DD0000E9403F90E94EDF80E9470F96D837E83B2
:104DE0008F83988769817A818B819C81909580954A
:104DF000709561957F4F8F4F9F4F0E943DF14B0102
:104E00005C016D857E858F8598890E943BF1698361
:104E10007A838B839C8320E030E0A901C501B40133
:104E20000E9437F1882309F4F0C029813A814B812F
:104E30005C81CA01B9010E949CF16D8B7E8B8F8BC6
:104E4000988FA7019601C701B6010E949CF19B01B2
:104E5000AC016D897E898F89988D0E9426F86B013F
:104E60007C01A5019401C501B4010E9427F89B01B2
:104E7000AC01C701B6010E9403F90E949CF9A98DFB
:104E8000BA8D95968D909D90AD90BC909897750138
:104E900064012D813E814F815885C21AD30AE40AEC
:104EA000F50A0E9470F9C61AD70AE80AF90AF7FE4D
:104EB0006EC020E030E0A901C301B2010E9437F1C9
:104EC000882309F4A6C0C501B4010E943BF16B011F
:104ED0007C01A3019201C301B2010E9427F89B014A
:104EE000AC01C701B6010E949CF16B017C012985D0
:104EF0003A854B855C85CA01B9010E949CF19B01F2
:104F0000AC01C701B6010E9426F86B017C01298122
:104F10003A814B815C81CA01B9010E949CF19B01DD
:104F2000AC01C701B6010E9427F86B017C0120E0AB
:104F300030E040E850E4C301B2010E949CF19B01C3
:104F4000AC01C701B6010E9403F90E94EDF86B01A4
:104F50007C0120E030E0A9010E944EFA18161CF0F6
:104F6000C12CD12C7601C701B6010E9470F96D8366
:104F70007E838F83988786169706A806B90620F445
:104F80008D829E82AF82B886C12CD12C76018D8114
:104F90009E81AF81B885E98DFA8D82A793A7A4A7DA
:104FA000B5A7C80ED91EEA1EFB1EC6A6D7A6E0AA44
:104FB000F1AA29893A894B895C8923AF34AF45AF7F
:104FC00056AFFF962D853E854F85588920833183C6
:104FD000428353836A960FB6F894DEBF0FBECDBFEF
:104FE000DF91CF911F910F91FF90EF90DF90CF90C5
:104FF000BF90AF909F908F907F906F905F904F90F9
:10500000089560E070E0CB01E5CE60E070E0CB0198
:1050100034CF60E070E0CB0198CF0F931F93809165
:10502000E0109091E110891B8F7009F449C09091B4
:10503000DD10992361F0833040F48FEF890F29F060
:105040008093DD1090E080E038C01092DD108091F8
:10505000E1102CE4829FC00111248C50984FFC0178
:10506000208120FDEFCF4091190550911A056091E4
:105070001B0570911C05E85BFF4F008111812281A7
:105080003381401B510B620B730B409319055093F6
:105090001A0560931B0570931C052091E1102F5F8A
:1050A0002F702093DE103091E1102091DF10321329
:1050B00004C02091DE102093DF101F910F910895FE
:1050C0000E94B7AEBFCF90916F0081E091FD02C00A
:1050D00080E0089590916F009D7F90936F000895F8
:1050E000EFE6F0E08081826080830895CF92DF92C6
:1050F000EF92FF92CF93DF93C82FE5DF94E0C99F33
:10510000E0011124FE01ED5CFA4FC080D180E28005
:10511000F3808111E5DFC35EDA4FC701B6010E945B
:105120003DF1288139814A815B810E949CF1DF91A8
:10513000CF91FF90EF90DF90CF900895CF93DF93C2
:1051400024E0829FC0011124EC01CD54D84FFC0112
:10515000E457F94F835D984FDC012D913D914D91BE
:105160005C9160817181828193810E9427F86883BC
:1051700079838A839B83DF91CF910895CF93DF93C7
:105180001F92CDB7DEB7898360E0CE0101960E9401
:105190003F1761E0CE0101960E943F1762E0CE0109
:1051A00001960E943F1789810F90DF91CF9108955A
:1051B0008F929F92AF92BF92CF92DF92EF92FF9227
:1051C000CF93DF9320913F02222309F49EC0EC018C
:1051D00080916D05C82ED12CF12CE12C80FF2CC0C4
:1051E0008090410290904202A0904302B09044020D
:1051F000288139814A815B81C501B4010E944EFA40
:10520000181624F488829982AA82BB8280904D026B
:1052100090904E02A0904F02B090500228813981A8
:105220004A815B81C501B4010E9437F187FF04C048
:1052300088829982AA82BB82D701C601B695A795BA
:105240009795879580FF2CC08090450290904602EC
:10525000A0904702B09048022C813D814E815F8131
:10526000C501B4010E944EFA181624F48C829D8266
:10527000AE82BF828090510290905202A090530261
:10528000B09054022C813D814E815F81C501B401F3
:105290000E9437F187FF04C08C829D82AE82BF825C
:1052A00082E0F694E794D794C7948A95D1F7C0FE2C
:1052B0002CC0C0904902D0904A02E0904B02F0907E
:1052C0004C02288539854A855B85C701B6010E9455
:1052D0004EFA181624F4C886D986EA86FB86C09052
:1052E0005502D0905602E0905702F090580228855F
:1052F00039854A855B85C701B6010E9437F187FF72
:1053000004C0C886D986EA86FB86DF91CF91FF90DC
:10531000EF90DF90CF90BF90AF909F908F900895C7
:10532000CF92DF92EF92FF920F931F93CF93DF9371
:10533000E82FF0E0EF01CC0FDD1FCC0FDD1F46178B
:1053400039F0823009F049C0C12CD12C760117C048
:105350008230D1F3A091F1078A2F90E0DC01AA0FEF
:10536000BB1FA80FB91FAE0FBF1FAA0FBB1FAA0FED
:10537000BB1FAC58B94FCD90DD90ED90FC908F01E4
:10538000000F111F000F111FF801EC53F04F259172
:10539000359145915491C15CDD4FC701B6010E9422
:1053A00027F86A837B838C839D83F801E854F04F50
:1053B0002591359145915491C701B6010E9427F876
:1053C0006E877F87888B998BDF91CF911F910F918B
:1053D000FF90EF90DF90CF90089550E0DA01AA0F90
:1053E000BB1FA40FB51FAE0FBF1FAA0FBB1FAA0F75
:1053F000BB1FAC58B94F862F90E0BC01660F771FDA
:10540000680F791FE60FF71FEE0FFF1FEE0FFF1F4C
:10541000EC58F94F20813181428153816D917D910A
:105420008D919C910E9426F86B017C01C15CDD4F3F
:10543000AC019B016A817B818C819D810E9427F850
:105440006A837B838C839D83A70196016E857F850C
:1054500088899989B3CF4091F107BC0187E692E032
:105460000C94F0BB4F925F926F927F928F929F92BB
:10547000AF92BF92CF92DF92EF92FF920F931F9362
:10548000CF93DF93CDB7DEB72C970FB6F894DEBF7E
:105490000FBECDBF2B013C0129873A874B875C8724
:1054A00047015801F601E080F1800281138120E07C
:1054B00030E0A901B701C8010E9437F1882309F43F
:1054C00081C05E2D4F2D302F212F852F942FA32F9C
:1054D000B22F89839A83AB83BC8320E030E0A9019B
:1054E000B701C8010E9437F1811104C0E12CF12CF1
:1054F00000EF11E4C701D8018D839E83AF83B88785
:10550000A501940160916F02709170028091710207
:10551000909172020E9437F187FF0BC080926F0258
:1055200090927002A0927102B0927202CE01059622
:1055300092DF409267025092680260926902709214
:105540006A0289859A85AB85BC8580936B029093AE
:105550006C02A0936D02B0936E02CE0101967BDFC8
:10556000A501940160916F027091700280917102A7
:10557000909172020E944EFA18165CF480926F02AB
:1055800090927002A0927102B0927202CE010596C2
:1055900062DF0E945FB22C960FB6F894DEBF0FBE9A
:1055A000CDBFDF91CF911F910F91FF90EF90DF90D2
:1055B000CF90BF90AF909F908F907F906F905F90B3
:1055C0004F90089550E040E035E023E47ECFCF9245
:1055D000DF92EF92FF920F931F936B01FC01E0802B
:1055E000F18002811381E7E6F2E024813581468172
:1055F0005781608171818281938134DF1F910F9186
:10560000FF90EF90DF90CF9008954F925F926F924E
:105610007F928F929F92AF92BF92CF92DF92EF9242
:10562000FF9251DDF82E8091E1108093E01080937D
:10563000DF108093DE1084E68093DD100E94B7AE09
:1056400080ED93E09093440E8093430EF11048DD7B
:1056500081E0809332050E945FB280E00E94F5B441
:1056600060930C0570930D0580930E0590930F05C4
:1056700081E00E94F5B4609310057093110580934A
:1056800012059093130582E00E94F5B46B017C0132
:10569000C0921405D0921505E0921605F0921705F8
:1056A00040900C0550900D0560900E0570900F0510
:1056B0008090100590901105A0901205B0901305F0
:1056C00083E00E94F5B440926702509268026092B3
:1056D000690270926A0280926B0290926C02A092B0
:1056E0006D02B0926E02C0926F02D0927002E09290
:1056F0007102F0927202609373027093740280934D
:10570000750290937602FF90EF90DF90CF90BF905C
:10571000AF909F908F907F906F905F904F900C9480
:105720001EBCCF93DF93CDB7DEB72C970FB6F8949E
:10573000DEBF0FBECDBF0E9471C9C5DC9CE0EFE3A8
:10574000F5E0DE01119601900D929A95E1F7811135
:10575000C7DCCE0101960E945B992C960FB6F89497
:10576000DEBF0FBECDBFDF91CF91089580910B05B5
:10577000649B5BC0816080930B05909103018091D5
:105780000B0590FF54C0826080930B0580910B0540
:105790004A9B4FC0846080930B058091310580FF48
:1057A00013C080917E0582958695877080FD0CC020
:1057B00080910B0580FF08C08091A90781608093CC
:1057C000A90780E00E947B9980913105869580FF32
:1057D00014C080917E05829586958695837080FDA4
:1057E0000CC080910B0581FF08C08091A9078260E1
:1057F0008093A90781E00E947B998091310586956D
:10580000869580FF18C080917E058695869580FDDF
:1058100012C080910B0582FF0EC08091A9078460A1
:105820008093A90782E00C947B998E7FA4CF8D7F13
:10583000ABCF8B7FB0CF08950F931F938091B207AA
:10584000813019F50E944EC300910705109108059B
:105850002091090530910A05601B710B820B930B97
:1058600028EE33E040E050E00E944BF760910305E2
:10587000709104058091050590910605620F731FD4
:10588000841F951F1F910F910895609126077091B5
:1058900027078091280790912907D6CF1092B20749
:1058A00010920705109208051092090510920A053A
:1058B00010922607109227071092280710922907A6
:1058C000109203051092040510920505109206052A
:1058D00008958091B2078130E1F08230C1F4ACDFED
:1058E0006093030570930405809305059093060566
:1058F00081E08093B2070E944EC3609307057093C6
:1059000008058093090590930A0581E00895C6DF94
:10591000EFCF80E008958091B2078150823070F41B
:105920001092B2070E944EC3609326077093270718
:10593000809328079093290781E0089580E00895D7
:10594000282F30E094E0359527959A95E1F797E375
:105950002A3008F490E3920F909318028F7097E327
:105960008A3008F490E3890F8093190288E192E06D
:1059700008952F923F924F925F926F927F928F92F3
:105980009F92AF92BF92CF92DF92EF92FF920F93CE
:105990001F93CF93DF9300D000D0CDB7DEB70E9426
:1059A0004EC300917A0510917B0520917C053091C2
:1059B0007D05011511052105310509F00CC3209164
:1059C0000811222309F44AC0E091061121502093C6
:1059D000081121E02E0F2093061130910911231395
:1059E00002C01092061124E0E29FF0011124E65F4C
:1059F000FE4E008111812281338100937605109340
:105A000077052093780530937905600F711F811D0C
:105A1000911D60937A0570937B0580937C0590932C
:105A20007D058091780590917905892BB9F08FB724
:105A30008E83F89420907605309077052101712CA3
:105A4000612C0091780510917905809123028532AF
:105A5000F1F08F3F09F496C09E819FBF26960FB646
:105A6000F894DEBF0FBECDBFDF91CF911F910F9194
:105A7000FF90EF90DF90CF90BF90AF909F908F906E
:105A80007F906F905F904F903F902F900895E7E543
:105A9000F1E294919D8397FDDFCF61E085E20E9462
:105AA00041C28D81882321F09D81923009F0BDC1D2
:105AB0004801B12CA12C60E072E18AE790E0A501D9
:105AC00098010E946DF729833A834B835C836901B7
:105AD0007A0121E0C21AD108E108F1088FEFC81657
