:100000000C9407180C9438180C9438180C94381861
:100010000C9438180C9438180C9438180C94381820
:100020000C9438180C9446D90C9446D90C9446D9A3
:100030000C9438180C94C9DE0C9438180C943818A9
:100040000C9438180C94478D0C9438180C9438186C
:100050000C9438180C9438180C941AEA0C947FDE1F
:100060000C9438180C9475780C946B780C943818A0
:100070000C9438180C9438180C9438180C943818C0
:100080000C9439410C9438180C9438180C94381886
:100090000C9491DF0C9467DF0C9438180C9438188A
:1000A0000C9438180C9438180C940B410C94381894
:1000B0000C9438180C9438180C9438180C94381880
:1000C0000C9438180C9438180C9438180C94381870
:1000D0000C9438180C9438180C9438180C94381860
:1000E0000C943818084AD73B3BCE016E84BCBFFD48
:1000F000C12F3D6C74319ABD56833DDA3D00C77FF8
:1001000011BED9E4BB4C3E916BAAAABE0000008090
:100110003F05A84CCDB2D44EB93836A9020C50B91F
:10012000918688083CA6AAAA2ABE000000803F004B
:100130004E414E494E495459494E46CDCCCC3D0ACC
:10014000D7233C17B7D13877CC2B329595E6241FAF
:10015000B14F0A000020410000C84200401C462068
:10016000BCBE4CCA1B0E5AAEC59D7400407A10F33B
:100170005A00A0724E18090010A5D4E80000E876D5
:1001800048170000E40B54020000CA9A3B0000002C
:10019000E1F505000080969800000040420F000045
:1001A00000A08601000000102700000000E8030006
:1001B0000000006400000000000A000000000001D0
:1001C00000000000002C76D888DC674F0823DFC1D0
:1001D000DFAE59E1B1B796E5E3E453C63AE651998B
:1001E0007696E8E6C28426EB898C9B62ED407C6FB4
:1001F000FCEFBC9C9F40F2BAA56FA5F490055A2A6B
:10020000F75C936B6CF9676DC11BFCE0E40D47FE76
:10021000F520E6B500D0ED902E030094357705006B
:1002200080841E080000204E0A000000C80C3333F2
:1002300033330F986E12831141EF8D2114893BE601
:100240005516CFFEE6DB18D1844B381BF77C1D908A
:100250001DA4BBE424203284725E228100C9F124F3
:10026000ECA1E53D27434F4D4D554E49434154497F
:100270004F4E0044525952554E004552524F525320
:1002800000494E464F004543484F001FE0201023D1
:1002900010249010A011202210241037B008400420
:1002A0008003001FE02010211023101520112021B1
:1002B00010211031300840048003001FE03FF03C63
:1002C000F03B701F601EE03DF03BF038700FC00740
:1002D0008003001FE03FF03EF03CF01AE01EE03EDD
:1002E000F03EF03EF00FC007800300506C65617374
:1002F00065205265736574005052494E5445522032
:1003000048414C5445440025533A202553004B495D
:100310004C4C45442E20005072696E746572206802
:10032000616C7465642E206B696C6C282920636194
:100330006C6C6564210A006563686F3A00457272EF
:100340006F723A0066616C73650074727565000ABD
:100350004D6561737572656420706F696E74733A70
:100360000A00337833206D6573682E205A206F663B
:10037000667365743A2000303D2E33323500313DCE
:100380002E3138006D6178002F3331002F3331006A
:100390002F333100303D2E33323500313D2E313890
:1003A000006D6178002F3331002F3331002F33314E
:1003B00000303D2E33323500313D2E3138006D6135
:1003C00078002F3331002F3331002F333100303D8F
:1003D0002E33323500313D2E3138006D6178002FDB
:1003E0003331002F3331002F333100303D2E333283
:1003F0003500313D2E3138006D6178002F333100EA
:100400002F3331002F33310009204261642072659F
:1004100073706F6E736521000920426164207265FC
:1004200073706F6E736521000920426164207265EC
:1004300073706F6E736521000920426164207265DC
:1004400073706F6E736521000920426164207265CC
:1004500073706F6E736521004C4F570048494748D1
:10046000004F4B004572726F723A20416C6C200055
:1004700020636F6E6E656374696F6E2E2E2E200082
:1004800054657374696E6720004C4F5700484947A4
:1004900048004F4B004572726F723A20416C6C20DD
:1004A0000020636F6E6E656374696F6E2E2E2E2052
:1004B0000054657374696E6720004C4F57004849BB
:1004C0004748004F4B004572726F723A20416C6C86
:1004D000200020636F6E6E656374696F6E2E2E2E22
:1004E000200054657374696E6720004C4F570048B4
:1004F000494748004F4B004572726F723A20416C79
:100500006C200020636F6E6E656374696F6E2E2EB3
:100510002E200054657374696E6720004C4F57009D
:1005200048494748004F4B004572726F723A20416C
:100530006C6C200020636F6E6E656374696F6E2E45
:100540002E2E200054657374696E672000544D434D
:1005500020434F4E4E454354494F4E204552524F33
:1005600052004F46460A0046616465204865696747
:1005700068742000426564204C6576656C696E671E
:1005800020004661696C656420746F20656E61624D
:100590006C6520426564204C6576656C696E670AFF
:1005A000004D65736820426564204C6576656C205B
:1005B000646174613A0A00496E76616C6964206D09
:1005C0006573682E0A00206E6F7420656E74657204
:1005D00065642E0A0050726F62696E6720506F6901
:1005E0006E740025532025692F256900206F662031
:1005F000004D424C2047323920706F696E742000E4
:10060000290A004A206F7574206F662072616E6738
:10061000652028302D00290A0049206F7574206F4D
:10062000662072616E67652028302D004D65736805
:100630002070726F62696E6720646F6E65004D6531
:1006400073682070726F62696E6720646F6E652ECA
:100650000A005374617274206D6573682070726F44
:1006600062696E67207769746820224732392053A7
:1006700031222066697273742E0A00473239533270
:10068000004732380A473239533200686173206EAE
:100690006F20646174612E0A004D657368204265A5
:1006A00064204C6576656C696E67200053206F7519
:1006B00074206F662072616E67652028302D3529A1
:1006C0002E0A00204D3932205400204D3932205856
:1006D000004452565F535441545553090050574DEE
:1006E0005F5343414C45090050574D434F4E460917
:1006F00000434F4F4C434F4E46090043484F504331
:100700004F4E460900544849474809090054434F91
:100710004F4C5448525309005450574D544852536B
:100720000900545354455009090054504F5745523D
:10073000444F574E0900494F494E09090047535449
:10074000415409090049484F4C445F4952554E09EC
:100750000047434F4E460909000900447269766517
:1007600072207265676973746572733A0A00733236
:100770007673620900733276736109003132304357
:100780000900313433430900313530430900313534
:10079000374309006F7409006F7470770900733272
:1007A000676109007332676209006F6C6109006F4D
:1007B0006C62090073747374090073675F72657308
:1007C000756C74004452565354415455530075533C
:1007D00074657020636F756E74005374616C6C6720
:1007E00075617264207468727300202D7374617275
:1007F000740900687973746572657369730A202DD2
:10080000656E640900626C616E6B2074696D6500D1
:100810006F66662074696D650070776D2067726120
:1008200064206175746F0070776D206F6666736504
:1008300074206175746F0070776D207363616C65EF
:10084000206175746F0070776D207363616C652033
:1008500073756D004F54207072657761726E005B26
:100860006D6D2F735D090050574D2074687265736C
:10087000682E0074737465700900696E7465727017
:1008800009006D73746570730900737465616C742D
:100890006843686F70007673656E73650900505722
:1008A0004D207363616C650043532061637475610F
:1008B0006C00486F6C642063757272656E740052D0
:1008C000756E2063757272656E74004D41582063B9
:1008D000757272656E7400524D5320637572726545
:1008E0006E74005365742063757272656E74004592
:1008F0006E61626C65640900090073707265616401
:100900004379636C6500737465616C746843686FE8
:10091000700020647269766572206D6F64653A09B3
:10092000007370726561644379636C65007374650C
:10093000616C746843686F700020647269766572D8
:10094000206D6F64653A0900737072656164437964
:10095000636C6500737465616C746843686F7000E4
:1009600020647269766572206D6F64653A09007360
:1009700070726561644379636C6500737465616C62
:10098000746843686F700020647269766572206DC8
:100990006F64653A09007370726561644379636CD2
:1009A0006500737465616C746843686F70002064DF
:1009B0007269766572206D6F64653A090020496E30
:1009C00076616C6964206578747275646572200064
:1009D00020496E76616C696420452073746570707F
:1009E0006572200020452073746570706572206EFA
:1009F0006F74207370656369666965640A004732C5
:100A00002F47332062616420706172616D65746587
:100A100072730A00536C6565702E2E2E004D65733F
:100A20006820706F696E74206F7574206F66207215
:100A3000616E67650A00436C69636B20746F2052B6
:100A40006573756D652E2E2E004E6F204D6F766589
:100A50002E002569730025696D20256973002569BD
:100A6000682025696D202569730025696420256942
:100A7000682025696D20256973002569792025691D
:100A800064202569682025696D20256973005072EE
:100A9000696E742074696D653A20006F6B006F6633
:100AA0006600860281027A0273026502444542555D
:100AB000473A004D3131332053003344205072699E
:100AC0006E746572204F46462E004D45415450418C
:100AD000434B00434F4F4C45525F54454D50455298
:100AE0004154555245004348414D4245525F54459B
:100AF0004D5045524154555245004241425953547C
:100B0000455050494E470041524353004D4F5449C0
:100B10004F4E5F4D4F44455300544845524D414C54
:100B20005F50524F54454354494F4E004C4F4E472F
:100B30005F46494C454E414D45004155544F524545
:100B4000504F52545F53445F5354415455530053D4
:100B5000445F575249544500524550454154005353
:100B600044434152440050524F4D50545F535550EE
:100B7000504F525400484F53545F414354494F4ED5
:100B80005F434F4D4D414E445300454D45524745FF
:100B90004E43595F50415253455200434153455FC4
:100BA0004C494748545F4252494748544E45535375
:100BB00000544F47474C455F4C49474854530053F6
:100BC0004F4654574152455F504F5745520042558A
:100BD000494C445F50455243454E54004C455645A0
:100BE0004C494E475F44415441005A5F50524F4276
:100BF000450052554E4F5554004155544F4C4556A3
:100C0000454C005052494E545F4A4F420050524F9B
:100C10004752455353004155544F5245504F52543B
:100C20005F54454D50004155544F5245504F52541A
:100C30005F504F5300564F4C554D45545249430059
:100C4000454550524F4D0042494E4152595F464929
:100C50004C455F5452414E5346455200534552490C
:100C6000414C5F584F4E5F584F4646004649524DE3
:100C7000574152455F4E414D453A4D61726C696E28
:100C800020322E302E392E312028536570203238F4
:100C900020323032312031313A32353A3435292060
:100CA000534F555243455F434F44455F55524C3A6D
:100CB0006769746875622E636F6D2F4D61726C6920
:100CC0006E4669726D776172652F4D61726C696EE7
:100CD0002050524F544F434F4C5F56455253494F4B
:100CE0004E3A312E30204D414348494E455F5459CC
:100CF00050453A3344205072696E746572204558ED
:100D00005452554445525F434F554E543A32205544
:100D10005549443A63656465326132662D34316108
:100D2000322D343734382D396231322D6335356305
:100D300036326633363766660A002F2F004D31345F
:100D40003520533C696E6465783E206F7574206F62
:100D5000662072616E67652028302D31290A0020D7
:100D60005200416363656C65726174696F6E3A200D
:100D700050005741524E494E4721204C6F77205A20
:100D8000204A65726B206D6179206C656164207406
:100D90006F20756E77616E74656420706175736520
:100DA000732E0A004D3230362058004F4646004F11
:100DB0004E0020204D61783A2000200020204D690F
:100DC0006E3A2000536F667420656E6473746F70A2
:100DD000733A2000486F74656E64206F66667365B1
:100DE00074733A0046523A0020466C6F773A2000FE
:100DF0003A200020536572766F2000206F757420B2
:100E00006F662072616E67650A00536572766F20A7
:100E1000004D424C2041646A757374205A0020646E
:100E20003A0020693A0020703A00496E76616C6998
:100E3000642065787472756465720A004C434420BE
:100E4000436F6E74726173743A20004D657368204D
:100E5000706F696E74206F7574206F662072616E9A
:100E600067650A004D34323120696E636F727265B6
:100E7000637420706172616D657465722075736151
:100E800067650A00486F6D652025732573257320FB
:100E90004669727374004F6666736574732041709F
:100EA000706C696564004572723A20546F6F2066F9
:100EB00061722100546F6F206661722066726F6DDF
:100EC000207265666572656E636520706F696E7409
:100ED0000A00454550524F4D2064697361626C654C
:100EE000640A0020647269766572206375727265A7
:100EF0006E743A20002064726976657220637572A0
:100F000072656E743A20002064726976657220639F
:100F1000757272656E743A2000206472697665722B
:100F20002063757272656E743A200020647269766F
:100F300065722063757272656E743A20006F6B0083
:100F40004361703A0020573A00436F6F6C696E67D7
:100F50002E2E2E0048656174696E672E2E2E004578
:100F600025632025530020573A0042656420436FD3
:100F70006F6C696E672E2E2E004265642048656195
:100F800074696E672E2E2E0023646566696E652077
:100F900044454641554C545F004B6420004B69204A
:100FA000004B702000504944204175746F74756E79
:100FB000652066696E6973686564212050757420C8
:100FC000746865206C617374204B702C204B692011
:100FD000616E64204B6420636F6E7374616E747312
:100FE0002066726F6D2062656C6F7720696E746F1A
:100FF00020436F6E66696775726174696F6E2E68E3
:101000000A00504944204175746F74756E652066FE
:1010100061696C6564212074696D656F75740A007F
:10102000504944204175746F74756E65206661691E
:101030006C6564212054656D7065726174757265AC
:1010400020746F6F20686967680A00204B643A203B
:1010500000204B693A2000204B703A200020436C5E
:10106000617373696320504944200A002054753A23
:101070002000204B753A2000206D61783A20002036
:101080006D696E3A200020643A2000206269617325
:101090003A2000504944204175746F74756E652084
:1010A00073746172740A00504944204175746F74FE
:1010B000756E65206661696C6564212054656D708C
:1010C0006572617475726520746F6F2068696768F6
:1010D0000A00504944204175746F74756E6520662E
:1010E00061696C6564212042616420686561746592
:1010F000722069640A00504944204175746F747508
:101100006E65004572723A207574663820666F6E9F
:1011100074206E6F7420696E697469616C697A6598
:10112000642E004572723A207574663820666F6EC0
:1011300074206E6F7420696E697469616C697A6578
:10114000642E004572723A207574663820666F6EA0
:1011500074206E6F7420696E697469616C697A6558
:10116000642E00FFE0FFD140A0C8A6A22FF8002304
:10117000AC00AF10FFFEFF05FFD0FFE0FFC1FFD1C5
:10118000E240A0C8A6A22FF800238127AC00AFFF41
:10119000D0FF64FFD1A5FFD0FF64FF64FFD1A4FF9F
:1011A000D0FF16FFFE42656400456E636C6F737579
:1011B00072650020202020202020002020202000F8
:1011C000A3028B02D302BB023FFFF038007030FC59
:1011D0003020FC102078102030102C00D02E31D080
:1011E0002F7BD02F7BD02E31D02C00D02030102060
:1011F000781020FC1030FC303800703FFFF03FFFCB
:10120000F03800703186302387102787902F87D0E1
:101210002F03D02030102078102078102030102F8D
:1012200003D02F87D027879023871031863038004E
:10123000703FFFF01FFFF81FFFF804104002082066
:1012400002082004104008208010410010410008CE
:1012500020800410400000001FFFF81FFFF84669BF
:101260006C2E204469612E202A0046696C2E204491
:1012700069612E004520696E206D6D5E3300200887
:101280002046616374002008204D6178002008200A
:101290004D696E004F6666004F6E004175746F7445
:1012A000656D70005654726176204D696E00566D02
:1012B000696E00566D6178202A00566D6178204570
:1012C00000566D6178205A00566D6178205900569D
:1012D0006D6178205800416D6178202A00416D6170
:1012E00078204500416D6178205A00416D61782079
:1012F0005900416D6178205800412D547261766526
:101300006C00412D526574726163740041636365C2
:101310006C0056652D4A65726B00565A2D4A6572EF
:101320006B0056592D4A65726B0056582D4A6572EE
:101330006B002A2053746570732F6D6D005A205313
:10134000746570732F6D6D00592053746570732F21
:101350006D6D00582053746570732F6D6D0041647E
:1013600076616E6365642053657474696E6773009B
:101370004D3432380046696C616D656E7400546599
:101380006D706572617475726500544D43204472CE
:1013900069766572730053746570732F6D6D004AC2
:1013A00065726B00416363656C65726174696F6E31
:1013B0000056656C6F636974790053657420486FDB
:1013C0006D65204F66667365747300436F6E666962
:1013D0006775726174696F6E00000C0F00FE070282
:1013E0002503BB017FFE08FE08FE05080806000075
:1013F00040F0C88888987810050808060000C0F8F2
:101400008888888888F80505050600012030F830AE
:10141000200508080600002070F820202020E005A4
:1014200009090600FF2070A8A8B888887020070561
:1014300005070001D86C366CD80509090600FFF8CD
:10144000A88888888888A8F8050A0A0600FE20501F
:1014500050505088A8A8887003030306000340A0DA
:1014600040FFFFFFFFFFFFFFFFFFFFFFFFFFFFFF4B
:10147000FFFFFFFFFFFFFF0000000605FF0107075A
:10148000060200808080808000800303030601053F
:10149000A0A0A005060606000050F85050F8500520
:1014A00009090600FF2070A8A07028A87020050771
:1014B00007060000C8C810204098980507070600D6
:1014C0000040A0A040A890680103030602058080A8
:1014D000800309090601FF204040808080404020B1
:1014E0000309090601FF804040202020404080057C
:1014F000070706000020A8702070A8200505050633
:1015000000012020F820200203030601FFC04080D4
:10151000050101060003F8020202060100C0C00531
:101520000707060000081010204040800507070646
:101530000000708898A8C88870030707060100405B
:10154000C040404040E005070706000070880810D2
:101550002040F8050707060000F8081030088870DA
:1015600005070706000010305090F8101005070717
:10157000060000F880F008088870050707060000DC
:10158000304080F0888870050707060000F80810D2
:1015900010202020050707060000708888708888C2
:1015A000700507070600007088887808106002053B
:1015B00005060100C0C000C0C00206060601FFC04B
:1015C000C000C04080030505060101204080402086
:1015D000050303060002F800F80305050601018073
:1015E000402040800507070600007088102020007A
:1015F000200507070600007088B8A8B880700507A6
:1016000007060000708888F88888880507070600A4
:1016100000F04848704848F0050707060000708849
:101620008080808870050707060000F04848484819
:1016300048F0050707060000F88080F08080F80574
:101640000707060000F88080F08080800507070605
:101650000000708880809888700507070600008861
:101660008888F8888888030707060100E040404022
:101670004040E00507070600003810101010906089
:101680000507070600008890A0C0A09088050707FE
:10169000060000808080808080F805070706000033
:1016A00088D8A8888888880507070600008888C821
:1016B000A8988888050707060000708888888888A9
:1016C00070050707060000F08888F0808080050715
:1016D0000706000070888888A8906805070706003C
:1016E00000F08888F0A09088050707060000708841
:1016F0008070088870050707060000F82020202069
:1017000020200507070600008888888888887005DB
:1017100007070600008888888850502005070706BC
:10172000000088888888A8A8500507070600008858
:1017300088502050888805070706000088885020B8
:10174000202020050707060000F80810204080F838
:101750000309090601FFE080808080808080E00529
:101760000707060000804040201010080309090602
:1017700001FFE020202020202020E00503030600B8
:10178000052050880501010600FEF8030303060149
:10179000058040200505050600007008788878055A
:1017A00007070600008080F0888888F00505050698
:1017B0000000708080887005070706000008087820
:1017C000888888780505050600007088F080700517
:1017D0000707060000304840E04040400507070684
:1017E00000FE70888888780870050707060000806A
:1017F00080F0888888880307070601004000C04001
:101800004040E00409090601FE10003010101010DD
:10181000906005070706000080808890E0908803AC
:101820000707060100C04040404040E005050506AE
:101830000000D0A8A8A8A8050505060000B0C88823
:1018400088880505050600007088888870050707E8
:101850000600FEF0888888F080800507070600FEF5
:1018600078888888780808050505060000B0C880D3
:10187000808005050506000078807008F0050707E0
:101880000600002020F8202020180505050600008D
:101890008888889868050505060000888888502093
:1018A0000505050600008888A8A85005050506005E
:1018B0000088502050880507070600FE8888885059
:1018C000204080050505060000F8102040F80309B7
:1018D000090601FF204040408040404020010909A6
:1018E0000602FF8080808080808080800309090656
:1018F00001FF804040402040404080050303060037
:101900000248A890FF41425300504C41004C65767C
:10191000656C696E6720446F6E6521004D6F76655A
:10192000205A004732395332004E65787420506F88
:10193000696E74002569202F2025750047323953C0
:101940003100473239533200436C69636B20746F46
:1019500020426567696E00486F6D696E672058594F
:101960005A00426564205A004661646520486569F2
:10197000676874004F6666004F6E00426564204CD5
:101980006576656C696E67004C6576656C204265AE
:1019900064004D6F74696F6E005A205261697365FF
:1019A00000326E64204E6F7A7A6C65205A00326E77
:1019B00064204E6F7A7A6C65205900326E64204E36
:1019C0006F7A7A6C65205800426564004E6F7A7AAF
:1019D0006C650046616E20537065656400436F6EF0
:1019E00066696775726174696F6E00526573746FB2
:1019F00072652044656661756C7473005072656829
:101A0000656174202420436F6E66004C434420437C
:101A10006F6E747261737400546F6F6C20436861F1
:101A20006E676500546F6F6C204F666673657473E4
:101A300000416476616E6365642053657474696EF9
:101A40006773004D61696E003135300035004245E5
:101A5000443A204D656E64656C2D7061727473003C
:101A600052756E617761792057617463683A204FCF
:101A70004E0032373500350045323A204D656E64F0
:101A8000656C2D7061727473004D61782054656DC2
:101A90007000323735004D696E2054656D70003529
:101AA0000045313A204D656E64656C2D706172742D
:101AB00073005053550047656E657269630050723C
:101AC0006F746F636F6C00312E300042617564007B
:101AD000313135323030004D4B532047454E203E9A
:101AE0003D2076312E33004D657368204C65766558
:101AF0006C696E6700457874727564657273003244
:101B0000006D61726C696E66772E6F726700334488
:101B1000205072696E74657200323032312D303669
:101B20002D323700322E302E392E31004D61726C3D
:101B3000696E00546865726D6973746F72730042E8
:101B40006F61726420496E666F005072696E7465D1
:101B50007220496E666F004D61696E0041626F755B
:101B600074205072696E74657200436F6E666967A7
:101B700075726174696F6E0054656D706572617421
:101B8000757265004D6F74696F6E0054756E6500F7
:101B9000496E666F2053637265656E004578747296
:101BA00075646572202A004D6F74696F6E00446918
:101BB0007361626C65205374657070657273004D5B
:101BC000383400426564204C6576656C696E670048
:101BD0004175746F20486F6D6500473238004D6164
:101BE000696E0050726568656174202420416C6CD8
:101BF0000050726568656174202420456E64207E03
:101C0000005072656865617420242042656400504C
:101C10007265686561742024207E0054656D70656E
:101C20007261747572650009190519436F6F6C64F0
:101C30006F776E005072656865617420240046619C
:101C40006E20537065656400426564004E6F7A7A59
:101C50006C65207E004D61696E00453200453100A3
:101C60005A00590058004532004531005A005900C9
:101C70004F6666004F6E005800544D432044726911
:101C80007665727300537465616C746843686F7035
:101C900020456E61626C6564005374657070696E96
:101CA00067204D6F646500447269766572204375E4
:101CB0007272656E7400416476616E636564205370
:101CC000657474696E6773004261627973746570DC
:101CD000205A00466C6F77207E00466C6F77004676
:101CE000616E20537065656400426564004E6F7AD2
:101CF0007A6C65207E00426564205A0053706565E9
:101D000064004D61696E006F70656E005452494702
:101D10004745524544003A20007A5F6D617800796A
:101D20005F6D617800785F6D6178005265706F72E9
:101D300074696E6720656E6473746F70207374616C
:101D40007475730A0000007A4300007A430000A013
:101D500043000020C1000000000000000020746F5C
:101D60006F206C6F6E6720657874727573696F6E23
:101D70002070726576656E7465640A0000007A43AF
:101D800000007A430000A0435761726E696E673AA3
:101D900020486F6D696E672042756D7020446976CA
:101DA00069736F72203C20310A0002020400008235
:101DB0004300007A430000A0430000A0400000A0C0
:101DC000400000004020746F6F206C6F6E672065CC
:101DD0007874727573696F6E2070726576656E7453
:101DE00065640A0048617264636F646564204465D9
:101DF0006661756C742053657474696E6773204CEA
:101E00006F616465640A00000048420000484200B7
:101E100000A041000034420000C8410000C8420058
:101E200000C842F0F7FB4300000C430000FA44E80E
:101E3000030000E803000014000000102700001059
:101E400027000020204D393036003B200020204D57
:101E500035363920533100546F6F6C2D6368616ED5
:101E600067696E673A0054312045005430204500C0
:101E7000447269766572207374657070696E67204C
:101E80006D6F64653A0020543120450020543020A5
:101E9000450053746570706572206472697665726E
:101EA0002063757272656E743A0020204D323530B1
:101EB0002043004C434420436F6E74726173743A44
:101EC0000020440020490020204D333031205000B4
:101ED0005049442073657474696E67733A002046F4
:101EE0000020420020480020204D3134352053008E
:101EF0004D6174657269616C2068656174757020EC
:101F0000706172616D65746572733A0020204732AA
:101F100039205334205A00204A00202047323920EB
:101F2000533320490020204D3432302053004D657A
:101F3000736820426564204C6576656C696E673A0B
:101F40000020204D323138205400486F74656E6493
:101F5000206F6666736574733A0020204D32303608
:101F6000205800486F6D65206F66667365743A008F
:101F700020580020530020204D32303520420041AF
:101F80006476616E6365643A20423C6D696E5F738E
:101F900065676D656E745F74696D655F75733E200E
:101FA000533C6D696E5F66656564726174653E2061
:101FB000543C6D696E5F74726176656C5F666565D1
:101FC00064726174653E20583C6D61785F785F6A29
:101FD00065726B3E20593C6D61785F795F6A65720E
:101FE0006B3E205A3C6D61785F7A5F6A65726B3E2A
:101FF00020453C6D61785F655F6A65726B3E0020CD
:10200000540020520020204D3230342050004163D3
:1020100063656C65726174696F6E2028756E697492
:10202000732F7332293A20503C7072696E745F616D
:102030006363656C3E20523C726574726163745FC9
:10204000616363656C3E20543C74726176656C5FBD
:10205000616363656C3E0020204D323031205400B6
:1020600020204D3230312058004D6178696D756DFA
:1020700020416363656C65726174696F6E202875B9
:102080006E6974732F7332293A0020450020204D69
:1020900032303320540020590020204D323033207C
:1020A00058004D6178696D756D2066656564726173
:1020B0007465732028756E6974732F73293A005301
:1020C000746570732070657220756E69743A0020B3
:1020D000204D32303020530020440020204D32303B
:1020E000302054002044697361626C65640A0046C4
:1020F000696C616D656E742073657474696E677365
:102100003A0020204D3134392043203B20556E6960
:10211000747320696E2043656C736975730A0020BF
:10212000286D6D29002020473231202020203B20BF
:10213000556E69747320696E206D6D0024F4D4307F
:1021400050C38E20C2A24017828B7011127A910D5B
:10215000816CD90AA861E108C75866076151430636
:102160001E4B5D05C145A7041A411104093D9803A2
:10217000713931034036DB0265339102D4305402A9
:10218000802E1D02632CEE01752AC501B028A00126
:10219000102781018F2564012B244B01E02234019B
:1021A000AC211F018D200D01801FFC00841EED005D
:1021B000971DDF00B81CD200E61BC600201BBC0028
:1021C000641AB200B219A8000A19A0006A1899008E
:1021D000D117910040178B00B516840031167E0090
:1021E000B31579003A157300C7146F0058146A00CC
:1021F000EE1366008813630025135E00C7125B00B0
:102200006C12570015125400C111510070114F008B
:1022100021114B00D61049008D1047004610440094
:1022200002104200C00F4000800F3E00420F3C00F1
:10223000060F3B00CB0E3800930E37005C0E3500C6
:10224000270E3400F30D3200C10D3100900D300027
:10225000600D2E00320D2D00050D2C00D90C2B0029
:10226000AE0C2900850C29005C0C2700350C2700DA
:102270000E0C2600E80B2400C40B2400A00B230046
:102280007D0B23005A0B2100390B2100180B200075
:10229000F80A1F00D90A1E00BB0A1E009D0A1D0075
:1022A000800A1D00630A1C00470A1B002C0A1B0041
:1022B000110A1A00F7091A00DD091900C4091900EA
:1022C000AB091900920917007B0918006309170070
:1022D0004C09160036091600200916000A091500D7
:1022E000F5081500E0081400CC081400B808140024
:1022F000A4081400900813007D0812006B08130056
:102300005808120046081200340811002308110072
:102310001208110001081100F0071000E00710007A
:10232000D0071000C0071000B0070F00A107100071
:1023300091070E0083070F0074070F0065070E005A
:1023400057070E0049070E003B070D002E070E0031
:1023500020070D0013070D0006070D00F9060C00FD
:10236000ED060D00E0060C00D4060C00C8060C00BB
:10237000BC060C00B0060C00A4060B0099060C006D
:102380008D060B0082060B0077060B006C060B0017
:1023900061060A0057060B004C060A0042060A00B6
:1023A00038060A002E060A0024060A001A060A0049
:1023B0001006090007060A00FD050900F4050900DA
:1023C000EB050900E2050900D9050900D00509005F
:1023D000C7050900BE050900B5050800AD050800E0
:1023E000A50509009C050800940508008C05080057
:1023F000840508007C050800740508006C050700CA
:10240000650508005D050700560508004E05070034
:10241000470507004005080038050700310507009B
:102420002A050700230507001C05060016050700FE
:102430000F0507000805060002050700FB0406005B
:10244000F5040700EE040600E8040600E2040700B5
:10245000DB040600D5040600CF040600C90406000C
:10246000C3040600BD040600B7040600B10405005D
:10247000AC040600A6040600A00405009B040600A8
:1024800095040500900406008A04050085040500F3
:10249000800406007A040500750405007004050038
:1024A0006B04050066040500610405005C0405007A
:1024B00057040500520405004D04050048040500BA
:1024C000430405003E0404003A04050035040500F9
:1024D000300404002C040500270404002304050034
:1024E0001E0404001A04040016040500110404006C
:1024F0000D040400090405000404040000040400A1
:10250000FC030400F8030400F4030400F0030400D7
:10251000EC030400E8030400E4030400E003040007
:10252000DC030400D8030400D4030400D003040037
:10253000CC030400C8030300C503030024F404D93A
:10254000201BC40C5C0E9804C4095F02650771016E
:10255000F405F900FB04B30048048700C1036900D7
:102560005803550003034500BE023A0084023100BF
:1025700053022A002902250004022000E4011C0065
:10258000C8011900AF01170098011400840113005D
:10259000710110006101100051010E0043010D0096
:1025A00036010B002B010B0020010B001501090067
:1025B0000C01090003010800FB000800F3000800FB
:1025C000EB000700E4000600DE000600D80006006D
:1025D000D2000600CC000500C7000500C2000500BF
:1025E000BD000400B9000400B5000400B1000400FF
:1025F000AD000400A9000400A5000300A200030030
:102600009F0004009B000300980003009500020057
:1026100093000300900003008D0002008B00030074
:10262000880002008600020084000300810002008E
:102630007F0002007D0002007B00020079000200A2
:1026400077000100760002007400020072000100B1
:10265000710002006F0002006D0001006C000200BA
:102660006A000100690002006700010066000100C5
:1026700065000100640002006200010061000100C9
:10268000600001005F0002005D0001005C000100CD
:102690005B0001005A0001005900010058000100D0
:1026A00057000100560001005500010054000100D0
:1026B00053000000530001005200010051000100CE
:1026C000500001004F0001004E0000004E000100CC
:1026D0004D0001004C0001004B0000004B000100C8
:1026E0004A000100490001004800000048000100C4
:1026F00047000100460000004600010045000000C0
:1027000045000100440001004300000043000100B7
:1027100042000000420001004100000041000100B1
:10272000400001003F0000003F0001003E000000AB
:102730003E0001003D0000003D0001003C000000A3
:102740003C0000003C0001003B0000003B00010099
:102750003A0000003A000100390000003900010091
:102760003800000038000000380001003700000089
:10277000370001003600000036000000360001007E
:102780003500000035000000350001003400000075
:10279000340000003400010033000000330000006A
:1027A000330001003200000032000000320001005E
:1027B0003100000031000000310001003000000055
:1027C00030000000300001002F0000002F0000004A
:1027D0002F0000002F0001002E0000002E0000003E
:1027E0002E0001002D0000002D0000002D00000033
:1027F0002D0001002C0000002C0000002C00000027
:102800002C0001002B0000002B0000002B0000001A
:102810002B0001002A0000002A0000002A0000000E
:102820002A00010029000000290000002900000002
:1028300029000000290001002800000028000000F5
:1028400028000000280000002800010027000000E8
:1028500027000000270000002700000027000100DB
:1028600026000000260000002600000026000000D0
:1028700026000100250000002500000025000000C2
:1028800025000000250000002500010024000000B4
:1028900024000000240000002400000024000100A7
:1028A000230000002300000023000000230000009C
:1028B000230000002300000023000100220000008C
:1028C0002200000022000000220000002200000080
:1028D0002200010021000000210000002100000072
:1028E0002100000021000000210000002100010063
:1028F0002000000020000000200000002000000058
:102900002000000020000000200000002000010046
:102910001F0000001F0000001F0000001F0000003B
:102920001F0000001F0000001F0001001E0000002B
:102930001E0000001E0000001E0000000437000002
:102940001E290000511B0000581000001009000053
:10295000CC040000780200004101000020436F75A4
:102960006E7420583A0045320042656400453100DB
:10297000626564002C2073797374656D2073746FC5
:102980007070656421204865617465725F49443ADE
:10299000200048656174696E67204661696C6564F2
:1029A0000048656174696E67206661696C656400E2
:1029B0004572723A204D415854454D50004D415892
:1029C00054454D50207472696767657265640045AF
:1029D00072723A204D494E54454D50004D494E5467
:1029E000454D502074726967676572656400202FD9
:1029F000002040002042403A0020403A00496E76D4
:102A0000616C69642065787472756465720A00414E
:102A100063746976652045787472756465723A20CE
:102A200000026D61726C696E66772E6F726700329C
:102A30002E302E392E31001FFFFFFFFFFFFF6000F9
:102A400000000001FF400000000000FF80000000C7
:102A500000007F83CF00000C303F87FF80000C30E8
:102A60001F867980000C000F8C30C7838C30E78C78
:102A700030CFC7CC31F38C30DCECEC33B98C30D8B0
:102A80006C6C33198C30D06C0C33198C30D86C0CC6
:102A900033198C30DC6C0E3B198C30CF7C079F19BE
:102AA0008C30C77C038F19400000000000026000DA
:102AB00000000000061FFFFFFFFFFFF8100060038B
:102AC00050012C0190012201D001180110020E01C9
:102AD00070020401E002FA006003F0000004E60066
:102AE000B004DC00A005D200B006C8000008BE009B
:102AF000A009B400800BAA00D00DA0009010960091
:102B0000C0138C0070178200901B780010206E009C
:102B1000C0246400E02D500080353C00A03A28001D
:102B2000A03D1400003F0000A03FECFF2020506CAF
:102B3000616E6E6572427566666572427974657320
:102B40003A20002046726565204D656D6F72793AB6
:102B50002000436F6D70696C65643A205365702086
:102B6000323820323032310A00204C6173742055E3
:102B70007064617465643A20323032312D30362D04
:102B80003237207C20417574686F723A20286E6F4E
:102B90006E652C2064656661756C7420636F6E666B
:102BA0006967290A004D61726C696E20322E302EE1
:102BB000392E310A0020536F667477617265205296
:102BC000657365740A00205761746368646F6720D9
:102BD00052657365740A002042726F776E206F75BC
:102BE000742052657365740A002045787465726EAE
:102BF000616C2052657365740A00506F7765725579
:102C0000700A0073746172740A00456E6473746FA5
:102C1000707300255320256320256320256320251C
:102C20006300205A3A0020593A0020583A00656E55
:102C30006473746F7073206869743A200000002117
:102C400000240027002A002D00300033000101007D
:102C500000040107010A01000020002300260029CA
:102C6000002C002F003200000100000301060109C2
:102C70000100002200250028002B002E0031003426
:102C80000002010000050108010B0105050505070B
:102C90000508080808020202020A0A0808040404D7
:102CA0000401010101010101010303030303030303
:102CB00003040707070C0C0C0C0C0C0C0C02020292
:102CC0000206060606060606060B0B0B0B0B0B0B85
:102CD0000B01021020200808102040102040800224
:102CE0000102010804020101020408102040808052
:102CF00040201008040201800402018040201008D6
:102D000004020108040201010204081020408001AD
:102D100002040810204080004D6F76652025736DF9
:102D20006D004D6F766520302E316D6D004D6F76E4
:102D30006520316D6D004D6F76652031306D6D0011
:102D40004D6F7665204178697300457874727564BB
:102D50006572004D6F7665205A004D6F766520597B
:102D6000004D6F7665205800486F6D696E6720468C
:102D700061696C656400010101307800220A005528
:102D80006E6B6E6F776E20636F6D6D616E643A204F
:102D900022003344205072696E746572205265615E
:102DA00064792E005072696E74696E672E2E2E0043
:102DB0005072696E74205061757365640020453AE5
:102DC00000205A3A0020593A00583A00205A00622E
:102DD0007573793A2070617573656420666F72202F
:102DE000696E7075740A00627573793A2070617546
:102DF00073656420666F7220757365720A00627570
:102E000073793A2070726F63657373696E670A0035
:102E100000000A0B02090C0D0E0807030401000054
:102E200000000000000000000000000000000000A2
:102E3000000000000000000000000000121110005F
:102E40000000000000000000000000000000000082
:102E50000000000000004D31313220536875746469
:102E60006F776E0053544F505045442E20005072DF
:102E7000696E7465722073746F7070656420647518
:102E80006520746F206572726F72732E20466978A8
:102E900020746865206572726F7220616E6420759F
:102EA0007365204D39393920746F207265737461F0
:102EB00072742E202854656D706572617475726528
:102EC0002069732072657365742E205365742069C0
:102ED00074206166746572207265737461727469BE
:102EE0006E67290A004E6F20436865636B73756DCA
:102EF0002077697468206C696E65206E756D6265F7
:102F0000722C204C617374204C696E653A2000630A
:102F10006865636B73756D206D69736D617463684B
:102F20002C204C617374204C696E653A20004C690A
:102F30006E65204E756D626572206973206E6F74C8
:102F4000204C617374204C696E65204E756D62650E
:102F5000722B312C204C617374204C696E653A20C1
:102F6000004D3131300053657269616C20737461BA
:102F7000747573206D69736D617463680A00212133
:102F8000204B494C4C206361757365642062792045
:102F90004B494C4C20627574746F6E2F70696E0AC9
:102FA000002121204B494C4C2063617573656420DE
:102FB000627920746F6F206D75636820696E61633C
:102FC000746976652074696D65202D206375727251
:102FD000656E7420636F6D6D616E643A20006F6B77
:102FE0000A00526573656E643A2000544845524D9C
:102FF000414C2052554E4157415900546865726DFD
:10300000616C2052756E6177617900006CF6112455
:103010001FBECFEFD1E2DEBFCDBF00E00CBF13E09B
:10302000A0E0B2E0ECEEFBE102E00BBF02C00790D3
:103030000D92AC36B107D9F722E1ACE6B3E001C09E
:103040001D92A93BB207E1F718E1C7E0D8E100E023
:1030500006C021970109802FFE010F94B70AC630E0
:10306000D10780E00807A9F70E944FF90D94F40DED
:103070000C940000CF93DF93EC01CB01BA010F94C5
:103080000C0420E030E048EC52E40F94D20B68834B
:1030900079838A839B83DF91CF910895CF93DF93C8
:1030A000EC01CB01BA010F940C0420E030E048ECB5
:1030B00052E40F94D20B688379838A839B83DF91D8
:1030C000CF910895CF93DF93EC01CB01BA010F9418
:1030D0000C04688379838A839B83DF91CF91089561
:1030E000CF93DF93EC01CB01BA010F940C046883FA
:1030F00079838A839B83DF91CF910895CF93DF9368
:10310000EC01CB01BA010F940C042AE037ED43E245
:103110005DE30F94D20B0F943F0C688379838A830D
:103120009B83DF91CF910895CF93DF93EC01CB0187
:10313000BA010F940C042AE037ED43E25DE30F94EB
:10314000D20B688379838A839B83DF91CF91089523
:10315000CF93DF93EC01CB01BA010F940C040F94D1
:103160003A0C79836883DF91CF910895CF93DF93F1
:10317000EC01CB01BA010F940C0420E030E04AE7E7
:1031800054E40F94D20B688379838A839B83DF9105
:10319000CF910895FC0184910895FC0180E0949101
:1031A000992331F0907C903809F08F5F3196F7CFFA
:1031B0000895FC0180810895FC0180E0919199239C
:1031C00029F0907C9038D1F38F5FF8CF089508955F
:1031D00090E080E0089590E080E00895282F90919D
:1031E0007904833021F495FD0FC094FD0FC0892F21
:1031F00090E0B0E0A0E004C0B695A79597958795BC
:103200002A95D2F78170089581E0089580E00895AD
:103210002FEB280F2A3108F047C0E22FF0E0809111
:10322000940490919504A0919604B091970404C0E1
:10323000B695A795979587952A95D2F780FD02C0F8
:1032400081700895E658FB4FE081EE2341F18091B3
:103250003B0E90913C0EE80FF92FF11D808190ED0F
:10326000980F9A3030F08E3251F4818180538A3039
:1032700098F4F0937204E093710481E008958D3224
:1032800011F08B3249F4818190ED980F9A3088F3D8
:103290008E3211F48281EACFF0E0E0E0EACF1092C2
:1032A000720410927104E9CF80E00895FC01DB0103
:1032B00012962D913D914C91149722833383448330
:1032C00015968C911597858316962D913D914C916D
:1032D000189726833783408719964D915D916D919C
:1032E0007C911C9741875287638774871D964D9107
:1032F0005D916D917C915097458756876787708B5C
:103300008BE393E09183808351968D919C915297AA
:10331000928B818B53964D915D916D917C915697D7
:10332000438B548B658B768B57968C915797878BF5
:1033300058968D919C915997918F808F5A968D9127
:103340009C915B97938F828F5C968D919C915D97FA
:10335000958F848F5E964D915D916D917C91919743
:10336000468F578F60A371A392964D915D916D9199
:103370007C91959742A353A364A375A396964D9110
:103380005D916D917C91999746A357A360A771A712
:103390009A968D919C919B9793A782A79C968D91CD
:1033A0009C919D9795A784A79E968D919C919F97A0
:1033B00097A786A7D0968D919C91D19791AB80AB22
:1033C000D2968C9182AB08950F940C0420E030E0EB
:1033D00040E251E40F94D20B0C9486C80F940C0475
:1033E00020E030E048EC52E40F94D20B0C94D0C7AC
:1033F0000F940C040C9433C50F940C042AE037EDA1
:1034000043E25DE30F94D20B0C94B7C70F940C0406
:103410002AE037ED43E25DE30F94D20B0C944EC9E2
:103420000F940C040C944EC90F940C0420E030E06F
:1034300048EC52E40F94D20B0C9469C20F940C0424
:103440000F943A0CCB010C94A5B20F940C0420E01D
:1034500030E04AE754E40F94D20B0C942FB80C944C
:10346000538ECF93DF93809147079091EC07891398
:1034700004C0DF91CF910C94538E8D5F90E0EC01EE
:10348000CC0FDD1FCC0FDD1FCF59DA4F880F991FEE
:10349000880F991FFC01E955F94F20813181428144
:1034A000538160E070E080E89FE30F94D20B688363
:1034B00079838A839B83DF91CF9108950C94538EF7
:1034C0000C94538E0C94FC8D80914707082E000CB1
:1034D000990B2091EC072817190611F40C94FC8D18
:1034E00008950C94FC8D0C94FC8D0C94FC8DCF9362
:1034F000DF93C0918A06D0918B06209729F16091C5
:1035000086067091870680918806909189060F94AF
:103510003A0C6E5F7F4F24976C177D07ACF4709365
:10352000700660936F060E9449DC6058774C8E4F9E
:103530009F4F609371067093720680937306909309
:103540007406DF91CF910895109271061092720661
:103550001092730610927406F4CFEF92FF920F93BD
:103560001F93CF93DF93EC018B017A018A859B85B2
:103570008617970731F0888199810E94DBE01B87CD
:103580000A87B701888199810E94ABD62E813F813D
:10359000820F932F911D9F838E8390E080E0DF91B7
:1035A000CF911F910F91FF90EF9008959F92AF924E
:1035B000BF92CF92DF92EF92FF920F931F93CF9320
:1035C000DF93EC018B01942EA52E8A859B858617AF
:1035D000970731F0888199810E94DBE01B870A8779
:1035E00088859985019649F5BC800A818E81080FEE
:1035F000C880D980D6015596ED91FC91C6011995E8
:10360000B80EE92CFA2C10E0F70121917F0121116D
:1036100027C08E819F81810F911D9F838E8390E0B3
:1036200080E0DF91CF911F910F91FF90EF90DF909D
:10363000CF90BF90AF909F9008950E811F81692D0C
:103640007A2D888199810E94ABD6800F912F911D90
:10365000288539852817390738F681E090E0E1CFD1
:103660004B2D602FC6010E94E8E1080F180FCCCF48
:10367000DF92EF92FF920F931F93CF93DF93EC01B2
:10368000D62E1CAD0BAD7C0184E0E80EF11CE98D5B
:10369000FA8DC7011995412F480F2D2D602FC701B5
:1036A0000E94E8E19BAD890F8BAF81E090E0DF9154
:1036B000CF911F910F91FF90EF90DF900895AF92FF
:1036C000BF92DF92EF92FF920F931F93CF93DF93FE
:1036D0008C01EB01D42E79018FE0481709F488C0E2
:1036E000A5E14A17C1F1BAE04B130EC0EC81FD8190
:1036F00030E020E042E061E0C801199548E751E17F
:10370000BE01C8010E944BE10A80DB81C02DF2E3BB
:10371000DF1609F4E4C0FD1508F493C085E1D8165E
:1037200009F4E2C0A7E1DA1609F4FCC0B4E1DB1247
:103730007DC0EE81FF818D8190E0880F991F8E0FF3
:103740009F1F11928E179F07E1F71A82888181507F
:103750008B831C826BC0AA80BB8043E651E1C80109
:103760000E944BE1F5014481440F406BBE01C8014A
:103770000E9433E141E0BE01C8010E943BE1D50156
:1037800016962D913C911797EC81FD8115964C91E1
:1037900066E0C801199540E0BE01C8010E9443E1FE
:1037A00043E651E1BE01C8010E944BE1F5014481AD
:1037B000440F4F5F406BBE01C8010E9433E141E0FE
:1037C000BE01C8010E943BE1D50115964C911597A9
:1037D00016962D913C91240F311DEC81FD8166E000
:1037E000C801199540E0BE01C8010E9443E18CCF99
:1037F00041E0C8010E9443E140E0BE01C8010E94CF
:103800003BE141E8BE01C8010E9433E1F70140817C
:1038100050E05595479555954795BE01C8010E94C2
:1038200033E140E0BE01C8010E9443E181E0DF9145
:10383000CF911F910F91FF90EF90DF90BF90AF90CD
:103840000895E6E4DE1609F47CC0F7E4DF1609F417
:103850007CC08BE3D812EACFD70111969C911197C7
:1038600013968C9138E0390F813031F0833011F0AC
:10387000392F02C0392F985021E04B81491708F4A5
:1038800020E041E0391708F040E091E05A81351717
:1038900008F490E0322F342B932311F4242331F2D7
:1038A000F701128100E0D12C843048F490E0FC0153
:1038B000EB56FD4FD0808F569D4FDC010C9117FFCA
:1038C00004C0B701CE010E94C7DFF70180818D0DD2
:1038D00080838181800F8183110F89F7A7CFB70182
:1038E000CE010E94C7DFA2CF88819A81980F9A8368
:1038F0002981921770F59C819F5F9C839B81890F22
:10390000821710F08FEF820F8B83EE81FF818D8104
:1039100090E0880F991F8E0F9F1F11928E179F079F
:10392000E1F784CFD7011C928A8111968C9311976D
:103930008D81815012968C9312978B8113968C9364
:1039400075CF8D81F701808371CF8981D7018C93E9
:103950006DCF80E06CCFCF92DF92EF92FF920F930A
:103960001F93CF93DF93CDB7DEB72C970FB6F894A4
:10397000DEBF0FBECDBFF0900711E090081120917F
:10398000A00421111DC043E251E16E2D8F2D0E9434
:1039900052E290E080E0F80EF0920711E0920811F8
:1039A00099272C960FB6F894DEBF0FBECDBFDF91DE
:1039B000CF911F910F91FF90EF90DF90CF900895DE
:1039C000C090D410D090D51020ED30E13A832983F7
:1039D0002F2D30E03C832B832E2D30E03E832D8332
:1039E00018861F827A8769871C861B8606ED1AE176
:1039F0009E012F5F3F4F4AEC58E1BC01C6010E9477
:103A0000B4D3B60180ED90E10E94DBE08F81988510
:103A1000C2CFCF92DF92EF92FF920F931F93CF937B
:103A2000DF93CDB7DEB72C970FB6F894DEBF0FBE8D
:103A3000CDBFF0900711E09008112091A004211152
:103A40001DC043E051E16E2D8F2D0E9452E290E0A7
:103A500080E0F80EF0920711E092081199272C9659
:103A60000FB6F894DEBF0FBECDBFDF91CF911F918F
:103A70000F91FF90EF90DF90CF900895C090D410F9
:103A8000D090D51020ED30E13A8329832F2D30E0FE
:103A90003C832B832E2D30E03E832D8318861F829E
:103AA0007A8769871C861B8606ED1AE19E012F5FC7
:103AB0003F4F49ED58E1BC01C6010E94B4D3B601A5
:103AC00080ED90E10E94DBE08F819885C2CF8091EC
:103AD000710490917204009731F04AE050E070E078
:103AE00060E00D94390260E070E0CB0108958091B0
:103AF000710490917204009731F04AE050E070E058
:103B000060E00D940D0160E070E0CB010895EFDFFF
:103B1000CB0108950F931F93CF93809171049091DF
:103B200072040097E9F0FC018F01C1912C2F2F7DC9
:103B300081F0C53411F0C536B9F7F801108270E094
:103B400060E00E94B7FFF801C083CF911F910F91F1
:103B5000089570E060E0CF911F910F910C94B7FF32
:103B600060E070E0CB01F1CF0C9477D4CF92DF927C
:103B7000EF92FF920F931F93CF93DF936B017A0124
:103B8000EC01C159DB4F28813CE0389F8001399F0F
:103B9000100D112427FF24C0FB011182108288819F
:103BA0008F5F888388819801280F311D87FD3A95A2
:103BB000C90120918910F6012817190629F024F06F
:103BC00088818C300CF43CC08081918104968034D3
:103BD0009C4908F475C0F60180819181049672C0F9
:103BE00088819801280F311D87FD3A95C9012091E0
:103BF00089102817190699F294F28881A801480FB4
:103C0000511D87FD5A95FA01EE0FFF1FE40FF51FB6
:103C1000EF5BFF4E808187FFC2CF8881F801E80FFC
:103C2000F11D87FDFA95CF01EE0FFF1FE80FF91F79
:103C3000EF5BFF4E808160E08F770E94C2D9AFCFEB
:103C4000808191812881A801420F511D27FD5A953D
:103C50009A01FA01EE0FFF1FE20FF31FEF5BFF4E19
:103C600021813281820F931FF701918380838881A4
:103C70009801280F311D87FD3A95F901EE0FFF1FBE
:103C8000E20FF31FEF5BFF4E808187FF20C088812A
:103C9000080F111D87FD1A95F801EE0FFF1FE00FA9
:103CA000F11FEF5BFF4E808161E08F77DF91CF9155
:103CB0001F910F91FF90EF90DF90CF900C94C2D99D
:103CC00080E49CE9F701918380838FEF8883DF9103
:103CD000CF911F910F91FF90EF90DF90CF900895BB
:103CE00063E972E084E690E00E9403B86AEB72E058
:103CF00084E690E00C9403B80E943EAEF1CF282FEA
:103D0000109245078091350790913607A0913707AB
:103D1000B0913807B7FF08C01092350710923607E8
:103D2000109237071092380780911D05882331F0D3
:103D3000809135078093390710922F0780912E07C5
:103D40001816FCF4082E000C990B821B9109209187
:103D50003907022E000C330B2817390794F097FF10
:103D600002C090E080E080933907092E000CAA0B76
:103D7000BB0B8093350790933607A0933707B0931A
:103D80003807809139076623A9F090913A0789177F
:103D900014F480933A0720913A07022E000C330B5B
:103DA0002C5F3F4F482F082E000C550B241735076A
:103DB0001CF4845080933A0708958091901090915C
:103DC0009110891B8F7039F481E09091A707913091
:103DD00019F080E0089581E008958F929F92AF924C
:103DE000BF92EF92FF920F931F93CF93DF93EC015B
:103DF0008B01E42EF22E8091CA109091CB108C177B
:103E00009D07B9F12FEBCA32D20709F03DC0855F9B
:103E1000974271F40E9449DC6E517B4F8F4F9F4F48
:103E20006093190570931A0580931B0590931C05E8
:103E3000D093CB10C093CA1030E020E00093350738
:103E4000109336072093370730933807E0923A07EC
:103E5000F0922E07C55FD74221F410921F051092F1
:103E6000180582E080936C0281E080932F07109206
:103E70001705DF91CF911F910F91FF90EF90BF90A9
:103E8000AF909F908F90089527E2C53FD20781F6AB
:103E90008A529F4BD1F40E9449DC80901905909082
:103EA0001A05A0901B05B0901C05681979098A09AC
:103EB0009B0997FF0AC080912C058770873029F4F1
:103EC0007CDFCFECD0E88111B3CFC5EFD7E2B0CF24
:103ED000E0911805E63028F581E08E0F80931805F3
:103EE0004091350750913607609137077091380738
:103EF00020913A0790912E0780911F0539E0E39FAA
:103F0000F0011124EE52FB4FA091CA10B091CB10DA
:103F1000B183A0834283538364837583268397830D
:103F2000808708952F923F924F925F926F927F9277
:103F30008F929F92AF92BF92CF92DF92EF92FF92B9
:103F40000F931F93CF93DF9300D000D0CDB7DEB790
:103F50001C017A8369832B833C834D835E83270115
:103F6000380181E080932F07B3DF83E080936C02F8
:103F7000309216052092150589819A819093140537
:103F8000809313058B819C81AD81BE8180930F0549
:103F900090931005A0931105B093120540920B0564
:103FA00050920C0560920D0570920E05F12CE12CDB
:103FB000C0923507D0923607E0923707F092380763
:103FC000B092CB10A092CA1090920A058092090577
:103FD0008C8D8093080526960FB6F894DEBF0FBE31
:103FE000CDBFDF91CF911F910F91FF90EF90DF90A8
:103FF000CF90BF90AF909F908F907F906F905F9089
:104000004F903F902F9008952F923F924F925F9242
:104010006F927F928F929F92AF92BF92CF92DF92D8
:10402000EF92FF920F931F93CF93DF9300D000D0B6
:1040300000D0CDB7DEB71C017987688769011A8384
:104040000983EB82BA01550F880B990B0F940C046E
:104050004B015C0120E030E040E05FEC0F941D0D6F
:1040600018162CF0812C912CA12C2FECB22EC5010E
:10407000B4010F943A0C2B013C01B601DD0C880B06
:10408000990B0F940C044B015C0120E030E040E000
:104090005FE40F94060487FD05C0812C912CA12CB0
:1040A0009FE4B92EE885F98560817181072E000CA7
:1040B000880B990B0F940C046B017C01C301B201B6
:1040C0000F940C049B01AC01C701B6010F94F50AD3
:1040D0000F943F0C6C837D838E839F83C501B40155
:1040E0000F943A0C7B018C01E418F50806091709B6
:1040F000FB81FF9389809A8081EEA82E87E2B82EFB
:10410000CC80DD80A301920168857985C1010ADF39
:104110000F9029960FB6F894DEBF0FBECDBFDF918A
:10412000CF911F910F91FF90EF90DF90CF90BF90B4
:10413000AF909F908F907F906F905F904F903F9047
:104140002F90089520E040E070E060E085EF97E276
:1041500044CECF93DF93C0911805CC23B1F0C1506A
:10416000C093180589E0C89FE0011124CE52DB4FAF
:104170006A817B812F814E81888199812EDE88859D
:1041800080931F05DF91CF910895DF91CF91DACF12
:104190006F927F928F929F92AF92BF92CF92DF9257
:1041A000EF92FF920F931F93CF93DF9306DE882E3B
:1041B00061E081E0A4DDC0913A0715E0811001C003
:1041C00016E00C2F85E0782E7C0E85E0F82EFC1A88
:1041D00084E0E82EEC1A83E0D82EDC1A82E0C82EA8
:1041E000CC1A90E7A92E93E1B92E81E0982E9C1A63
:1041F0006C2E6194C11178C080913907882309F42D
:1042000057C080916C02882359F081E09091390762
:10421000911180E024E04BEC53E1662D0E946AD6B8
:104220008110C3C0C53009F0C0C080913907853006
:1042300009F4E8C080916C028111F5C0D6E081E0FC
:104240008D0F8C1315C0809139078C1709F416C196
:1042500080916C02882361F06C2F601B81E090914B
:1042600039079C1380E023E04EE753E10E946AD6B1
:1042700082E08D0F8C1315C0809139078C1709F4DB
:104280000EC180916C02882361F06C2F601B81E06D
:10429000909139079C1380E023E045E753E10E94A9
:1042A0006AD6CF5F7C12A6CFDD5FD0932E070DC0FC
:1042B0008091300710923007882309F4A2CF49DF9C
:1042C00080912F07882309F49CCFDF91CF911F9114
:1042D0000F91FF90EF90DF90CF90BF90AF909F90A5
:1042E0008F907F906F900895C13021F580913907AC
:1042F000813081F080916C02882309F491CF81E0B4
:1043000090913907913009F080E020E24AEB53E1C7
:10431000692D84CF8091300710923007882351F3A4
:10432000B0922C07A0922B070DDF80912F078823D6
:1043300009F3CBCFC23009F0C3C080913907823076
:1043400081F080916C02882309F46ACF81E090911A
:104350003907923009F080E023E041EB53E16C2D06
:104360005DCF8091300710923007882351F38AE3A4
:104370009EE20E9463B880912F07882311F3A5CF96
:10438000809139078330F1F080916C02882309F421
:1043900047CF81E090913907933009F080E023E026
:1043A00044EA53E16D2D0E946AD61C1309C0809126
:1043B0003907811709F444C080916C02811151C002
:1043C000D12F3DCF80913007109230078823E1F242
:1043D0008BE790E30E9463B880912F078823A1F2B6
:1043E00074CF8091300710923007882309F473C08E
:1043F00081ED93E30E9463B880912F07882309F42D
:104400006AC063CF8091300710923007882309F487
:1044100011CF82E795E30E9463B880912F0788232C
:1044200009F408CF52CF81E090913907953009F017
:1044300080E023E046E953E16F2D0E946AD6FECE6C
:104440008091300710923007882309F4B5CF84EFAC
:104450009AEB0E9463B880912F07882309F4ACCFB0
:1044600034CF6C2F601B81E0909139079C1380E062
:1044700023E04AE853E10E946AD6A2CF8091300738
:1044800010923007882309F4E3CE85EE96E30E946C
:1044900063B880912F07882309F4DACE16CF809174
:1044A000300710923007882309F4EBCE8AE398E3B3
:1044B0000E9463B880912F07882309F4E2CE05CFCC
:1044C000C33009F45DCFC43009F0AACE809139071A
:1044D000843009F486CF80916C02882309F4A0CE41
:1044E00081E090913907943009F080E023E04FE9B2
:1044F00053E16E2D58CFCF93DF93CDB7DEB78E81CA
:104500009091A507891778F08093A5079E01275FF2
:104510003F4F4F81588564E570E080E597E00F9448
:10452000CE0310924F07DF91CF9108950F931F9301
:10453000CF93DF938C016F3F19F41092A50760E0D1
:104540002091A507862F062E000C990B2817190617
:1045500009F004F56093A507C8010F945503800F77
:10456000911FEC01C01BD10BC535D1053CF0019763
:10457000FC012491207C2038D1F3F3CFDD27AE015C
:10458000B80180E597E00F947603C05BD84F18829E
:1045900010924F07DF91CF911F910F9108950F93C4
:1045A0001F930E9449DC0091CE041091CF0420910A
:1045B000D0043091D104601B710B820B930B97FDDB
:1045C0000CC086B186FB882780F991E08927349B4F
:1045D0008260329B84608093CD048091CD04817091
:1045E0009091CD0491FD82609091CC04981749F090
:1045F000813009F148F0823079F0833091F0809376
:10460000CC041F910F910895913079F09230B9F751
:104610009091CB0491500CC0992339F09330C1F3A1
:10462000EECF9130A9F3923051F79091CB049F5F78
:104630009093CB04E4CF992359F3933001F7F5CF4E
:10464000CF92DF92EF92FF92CF93C82F833011F475
:104650006093BA040E9449DC6B017C0124EA30E7D4
:104660004DE75FE36091140270911502809116028C
:10467000909117020F94060487FD18C08AEF90E00E
:10468000A0E0B0E08C0D9D1DAE1DBF1D8093BB044E
:104690009093BC04A093BD04B093BE04C0931202D7
:1046A000CF91FF90EF90DF90CF90089580E090E061
:1046B000DC01E8CFAF92BF92CF92DF92EF92FF92F0
:1046C0000F931F93CF93DF93EC015B018A01FB01F2
:1046D000199587FD16C0C82ED12CF12CE12C2196FE
:1046E000F801C082D182E282F382CE01DF91CF91C4
:1046F0001F910F91FF90EF90DF90CF90BF90AF9000
:104700000895982F907E903CA9F48F7190E0B0E0CE
:10471000A0E06C017D0156E0CC0CDD1CEE1CFF1C02
:104720005A95D1F7CE010196F50119958F73C82AD4
:104730002296D6CF982F907F903E11F58F7090E003
:10474000B0E0A0E06C017D0136E0CC0CDD1CEE1C7D
:10475000FF1C3A95D1F7CE010196F50119958F739B
:10476000C82A46E0CC0CDD1CEE1CFF1C4A95D1F794
:10477000CE010296F50119958F73C82A2396B0CF02
:10478000982F987F903F79F5877090E0B0E0A0E097
:104790006C017D0186E0CC0CDD1CEE1CFF1C8A95B3
:1047A000D1F7CE010196F50119958F73C82A96E0CD
:1047B000CC0CDD1CEE1CFF1C9A95D1F7CE010296A5
:1047C000F50119958F73C82A26E0CC0CDD1CEE1C70
:1047D000FF1C2A95D1F7CE010396F50119958F7329
:1047E000C82A24967DCF982F907C903841F4807C05
:1047F000803869F42196CE01F5011995F8CF8E7FA6
:104800008D3F28F02196CE01F5011995F8CFC12CE6
:10481000D12C760165CF9CE0899F802D112491E0F9
:10482000980F90939F042CE0280F2093460730E0C8
:104830002E5F3F4F409104114217130619F014F0F8
:1048400080E00895209106119217D0F7662341F079
:104850008E5F0E94D3E1809146078E5F0E94D3E174
:104860008091460790910411891750F32091061109
:1048700090919F04291720F310920711809308113B
:1048800081E0089520919D04022E000C330B8217C5
:10489000130641F080939D0469ED73E180ED90E192
:1048A0000C94DBE008951F93CF93DF931F92CDB755
:1048B000DEB78F3F910519F014F08FEF90E0883745
:1048C000910514F488E790E09093320280933102CE
:1048D000182F80910911811105C081E08093091181
:1048E0000E94FEDF6091D2107091D31019839E0157
:1048F0002F5F3F4F4FE080ED90E10E94FADF0F9075
:10490000DF91CF911F910895CF9380919E048111E3
:104910004FC01092071110920811109209111092B5
:10492000D5101092D4101092D7101092D610109269
:10493000D91081E08093D81082E28093DA1010922F
:10494000DF101092DE10E3EFF0E121E031E18FEFB4
:1049500081932E173F07E1F7C1E0C093F0102FE0DD
:1049600030ED3093E6102093E510C093E7101092DD
:10497000E8101092E91090E49093EA101092EB1076
:104980002EE030ED30930211209301112CE032E043
:104990003093D3102093D21099E19093F5109BE1BE
:1049A0009093F4108093F3100E94FEDFC0939E0456
:1049B000809131029091320276DF81E08093A004F1
:1049C00083E691E19093300F80932F0F1092320F76
:1049D0001092310FCF91089597DF3E98469A3C98F8
:1049E000449A3A98429ADBDD1092CB040895CF9214
:1049F000DF92EF92FF920F931F93CF93DF93CDB788
:104A0000DEB72C970FB6F894DEBF0FBECDBF6F3F59
:104A100071058105910509F0D0F48CEC90E10E94BC
:104A2000381BE091D410F091D5103196849190E02C
:104A30002C960FB6F894DEBF0FBECDBFDF91CF919D
:104A40001F910F91FF90EF90DF90CF900895F0901D
:104A50000711E09008112091A00421110FC043E438
:104A600051E16E2D8F2D0E9452E290E080E0F80E11
:104A7000F0920711E09208119927DACFC090D41074
:104A8000D090D51020ED30E13A8329832F2D30E0EE
:104A90003C832B832E2D30E03E832D8318861F828E
:104AA0002FEF3FEF3A8729871C861B8606ED1AE118
:104AB0009E012F5F3F4FAB01BC01C6010E94F0D2A7
:104AC000B60180ED90E10E94DBE08F819885CFCF29
:104AD000AF92BF92CF92DF92EF92FF920F931F930C
:104AE000CF93DF9300D01F92CDB7DEB77C01062FA6
:104AF0006A01122F86E0A82EB12C11160CF03EC0D0
:104B0000AE014F5F5F4F6AEC78E1C701D3DD7C01F6
:104B100069817A818B819C8161157105810591057F
:104B200069F16D3371058105910509F44EC06E3749
:104B300071058105910509F448C06A327105810546
:104B4000910561F507FF12C089EA91E10E3F11F06E
:104B500085EA91E126E01202B00111240E94AB1C0B
:104B600066E070E00F94A40A161B5DC065E470E077
:104B700080E090E03CDF115051F510E0812F0F9064
:104B80000F900F900F90DF91CF911F910F91FF9099
:104B9000EF90DF90CF90BF90AF9008956432710591
:104BA0008105910579F4C114D10461F026E0120267
:104BB000B0011124C6010E94AB1CB5010F94A40AD8
:104BC000161B9BCF14DF115098CF07FDBDCF61E0BE
:104BD00089819A81AB81BC81CD97A105B10509F48A
:104BE00060E0600F6A30A4F01150862F6AE00F94E5
:104BF000830A092F682F880F770B605D7F4F072E80
:104C0000000C880B990BF3DE112309F4B6CF602F4B
:104C1000062E000C770B605D7F4F072E000C880B73
:104C2000990BE5DE1150112309F4A7CF86E0180295
:104C3000B0011124C7010E94AB1C66E070E00F9424
:104C4000A40A161B9BCF8F929F92AF92BF92CF92D6
:104C5000DF92EF92FF920F931F93CF93DF935B014D
:104C6000C42F790141FB662760F9D5DD882309F45B
:104C70005FC0D12CC12CA114B10439F0C5010E9430
:104C8000CD1896E0899F6001112410E000E0E11446
:104C9000F10429F0C7010E94DC18082F10E0C0FFC2
:104CA00020C080E890E08C199D094AEF40039001F4
:104CB000419F300D1124820F931F6CE070E00F9420
:104CC000A40A4B01C0E8D0E081E0881A910897FC63
:104CD0000AC060E270E080E090E089DEC81BD90B7A
:104CE000F3CFC0E8D0E0CD2891F0CE0166E070E0CF
:104CF0000F94900A262F40914807509149076091E0
:104D00004707C501E5DE96E0899FE0011124012BEC
:104D100031F0BE01C7010E94091DC81BD90BC73065
:104D2000D10530F060E270E080E090E060DEF5CF29
:104D3000DF91CF911F910F91FF90EF90DF90CF9077
:104D4000BF90AF909F908F9008956FEF7FEF0C947E
:104D5000091DAF92BF92CF92DF92EF92FF920F9315
:104D60001F93CF93DF935C016B010E94CD18E82E57
:104D7000C6010E94DC18F12C03E110E0081B1109A8
:104D8000C5E20E151F050CF4CFE18C2F90E09C01BD
:104D90002E5F3F4F409104114217130609F0BCF5F6
:104DA000099720910611281719068CF140914807A0
:104DB000509149076091470710920711C09308115D
:104DC00025E1C50185DED1E0C114D104A9F06AE373
:104DD00070E080E090E00BDE0E151F05D4F4C45F98
:104DE00080910411C81740F0209106114C2F4950B2
:104DF000550B241715067CF4DF91CF911F910F916D
:104E0000FF90EF90DF90CF90BF90AF900895D0E0EB
:104E1000DBCFDD2389F3802F880F080F000F00936D
:104E20000711C093081160E270E080E090E0DFDDE0
:104E3000C601DF91CF911F910F91FF90EF90DF900E
:104E4000CF90BF90AF9081CF0F931F93CF93DF93FD
:104E5000FC01EB018091350790913607A09137074F
:104E6000B0913807B7FF08C0109235071092360787
:104E7000109237071092380780910B0590910C051E
:104E8000A0910D05B0910E05409135075091360760
:104E9000609137077091380784179507A607B70701
:104EA00044F48093350790933607A0933707B09367
:104EB000380780916C028823D9F060913507709192
:104EC0003607809137079091380700910F051091B0
:104ED00010052091110530911205600F711F821F7E
:104EE000931F1995BC01809115059091160531DF2E
:104EF00080913007811108C0809108058823C9F18D
:104F000080916C028823A9F180911305909114057A
:104F10000097B1F0409135075091360760913707FF
:104F20007091380700910F0510911005209111051F
:104F300030911205400F511F621F731FFE0119951A
:104F4000E0910905F0910A05309741F0809108053C
:104F5000811103C08091300781111995809130072C
:104F600010923007882329F0DF91CF911F910F9184
:104F7000F0C8DF91CF911F910F9108956FE77EE701
:104F800084EE99E161CF6EE478E18EEE99E15CCF39
:104F900060E778E188EF99E157CF6EE778E18CEF31
:104FA00099E152CF64E978E186E09AE14DCF62E67B
:104FB00078E180E19AE148CF6AE378E184E19AE11F
:104FC00043CF68EA78E18EE19AE13ECF66EB78E183
:104FD00085E29AE139CFECECF0E183AF64AFCA012E
:104FE000B4CE6FEF7FEF0C94AB1C2F923F924F9299
:104FF0005F926F927F928F929F92AF92BF92CF9269
:10500000DF92EF92FF920F931F93CF93DF9300D025
:105010001F921F92CDB7DEB71092450780913007DF
:1050200010923007882301F120E040E070E060E05A
:105030008AE29FEB0E94ED1E0F900F900F900F9051
:105040000F90DF91CF911F910F91FF90EF90DF9024
:10505000CF90BF90AF909F908F907F906F905F9018
:105060004F903F902F9050CC20911F023091200202
:105070004091350750913607CA01820F931F24369D
:10508000310509F07BC34730510544F006978A305B
:1050900091050CF082C38AE090E089C306964A3FEE
:1050A0005F4FACF380911D05882309F476C16091B0
:1050B000C6077091C707072E000C880B990B0F9439
:1050C0000C04F1E0F9832091C2073091C3074091AD
:1050D000C4075091C5070F941D0D18160CF01982C6
:1050E0006091DD077091DE07072E000C880B990B8D
:1050F0000F940C042091D9073091DA074091DB0717
:105100005091DC070F941D0D18161CF429812260A4
:10511000298360918A0670918B06072E000C880BFC
:10512000990B0F940C0420918606309187064091CC
:105130008806509189060F941D0D18161CF449819C
:1051400044604983C980C092B9042091A807309176
:10515000A9074091AA075091AB0760916D02709129
:105160006E0280916F02909170020F94F60A4B01CB
:105170005C012091AC073091AD074091AE07509192
:10518000AF076091710270917202809173029091E9
:1051900074020F94F60A69837A838B839C8320912F
:1051A000B0073091B1074091B2075091B3076091B9
:1051B00075027091760280917702909178020F9437
:1051C000F60A2B013C0120E030E040E251E40F946C
:1051D0006B0420E030E048EC52E40F946B046B0168
:1051E0007C0120E030E0A901C301B2010F94060464
:1051F00020E030E040EA50EC87FD04C020E030E0E1
:1052000040EA50E4C701B6010F94F60A20E030E00E
:1052100040E251E40F94D20B0F943A0C2B013C0165
:1052200080E277FE09C07094609450944094411CD1
:10523000511C611C711C8DE28093200560E220E10D
:10524000421627E25206610471048CF0C301B201D8
:1052500020E137E240E050E00F943C0ACA01B90176
:105260002AE030E040E050E00F943C0A605D60933B
:10527000210560E248EE441643E0540661047104DF
:105280008CF0C301B20128EE33E040E050E00F940F
:105290003C0ACA01B9012AE030E040E050E00F9436
:1052A0003C0A605D60932205C301B20124E630E050
:1052B00040E050E00F943C0A6AE0C62ED12CE12C6D
:1052C000F12CCA01B901A70196010F943C0A605D57
:1052D00060932305C301B201A70196010F943C0A14
:1052E0006D83CA01B901A70196010F943C0ACD80D4
:1052F000CC2009F46CC28EE280932405605D60933B
:1053000025052C2D205D2093260560E275E081EBBC
:1053100094E00F94D30D20E030E0A901C501B40161
:105320000F94060420E030E040E05FEB87FD04C00E
:1053300020E030E040E05FE3C501B4010F94F60ADD
:105340000F943A0CCB010E9426B2BC018CEA94E087
:105350000F94D30D20E030E0A90169817A818B811F
:105360009C810F94060420E030E040E05FEB87FD75
:1053700004C020E030E040E05FE369817A818B8106
:105380009C810F94F60A0F943A0CCB010E9426B22E
:10539000BC0187EA94E00F94D30D0E9449DC009190
:1053A000A2041091A3042091A4043091A5046B01E0
:1053B0007C01C01AD10AE20AF30A9701860137FD7F
:1053C00011C02091A10420952093A1046A547C4F20
:1053D0008F4F9F4F6093A2047093A3048093A40403
:1053E0009093A504D090A104DD8281E04BDA8091F6
:1053F000B904982F947048E00CE082FD02C042E1AD
:1054000002E080910411843180F4809106118417A8
:1054100060F0992309F4EDC18AE392E17C0123E075
:1054200060E580ED90E10E9478E280910411843182
:10543000C0F4809106118230A0F0CD80CC2009F418
:10544000DBC18091EE07882309F4D6C18EEF91E18C
:105450007C0102E123E042E068E680ED90E10E94F9
:1054600078E2809104118C3108F0C2C04EEBA42E7A
:1054700047E0B42E2FE02983D12CC12C53E0852E98
:10548000912C3C2DF5012480358046805780608426
:10549000718480910411843138F58091061188302F
:1054A00018F162E2C11001C068E0F601E756FD4F55
:1054B00020818091B90490E0B0E0A0E004C0B695EE
:1054C000A795979587953A95D2F7F601EE0FFF1FAE
:1054D00080FF95C1EC53FE4EE590F4900CE048E05F
:1054E00080ED90E10E9478E280910411883040F4D0
:1054F00077FE88C141E653E067E0898189506BDD22
:10550000809104118C31B0F480910611843190F0B7
:1055100020E030E040E05FE3C201B1010F94F60A01
:105520000F943A0C77FF8FC141E653E06CE189811B
:10553000895051DD2FEFC21AD20A47E1A40EB11CE7
:105540006981665E6983633409F09BCFC0908606EB
:10555000D0908706E0908806F0908906809104112B
:10556000883058F480918A0690918B0697FF8CC101
:1055700041E653E067E081E52EDD809104118C3136
:10558000A8F480910611843188F020E030E040E0FA
:105590005FE3C701B6010F94F60A0F943A0C77FF48
:1055A00093C141E653E06CE181E515DD8091041182
:1055B0008C31F0F4809106118431D0F08091EE07A7
:1055C0008823B1F0E4E68E9FC001112481589F4FDB
:1055D0006FEF70E00F94A40ACB010E94A5B2AC015A
:1055E0006CE187E6F8DC65E270E080E090E0FFD9EE
:1055F00080910411883208F074C0809106118D31B9
:1056000008F46FC00BE020E84DE160E080ED90E130
:105610000E94B1E1882381F06DE180ED90E10E946C
:105620005FE080E00E9483E08FE70E9483E067E212
:1056300080ED90E10E945FE080910411873208F0D4
:1056400050C0809106118F3108F44BC083E08093E5
:105650000711F6E2F093081168E570E080E090E051
:10566000C6D98BE08093071126E2C22EC0920811A2
:10567000DD80DD2009F449C18CEA94E066DB88E234
:1056800080930711F6E2F093081169E570E080E07D
:1056900090E0ADD980E38093071196E2C92EC092C5
:1056A0000811DD80DD2009F44FC187EA94E04DDB6D
:1056B0008DE480930711F6E2F09308116AE570E03B
:1056C00080E090E094D985E58093071186E2C82EAA
:1056D000C0920811DD80DD2009F457C181EB94E010
:1056E00034DB80910411833310F5809106118B32E5
:1056F000F0F083E0C7D883E08093071183E38093C1
:10570000081166E070E080E090E071D981E0BAD8DD
:1057100080911F02909120020E94A5B2AC0163E328
:105720008CE059DC65E270E080E090E060D9809127
:105730000411813408F0CCC180910611863308F43D
:10574000C7C1109207118EE38093081180E597E09E
:105750000E94DC188983863108F03AC180E597E021
:10576000F4DAF981F53109F4B3C160E270E080E068
:1057700090E03DD929812F5F2983F3CF243631056D
:105780004CF48536910504F58A30910534F48AE0AD
:1057900090E009C084369105BCF0883EE3E09E07A6
:1057A00014F087EE93E02817390709F47BCC909327
:1057B000200280931F021092350710923607109234
:1057C0003707109238076ECC84E690E0F0CF66235E
:1057D00051F08EE280932405605D6093250580E2A0
:1057E0008093260592CD80E2809325058093240541
:1057F000F6CF84E392E112CE88EC91E129CEE05419
:10580000FE4E6ACEC3010E94A5B2FC01808193E0E6
:10581000803229F4818192E0803209F491E0A40180
:10582000491B51094E0F5F1F892F880F880F981B46
:10583000892F67E0F9818F0FCEDB69E070E080E0AF
:1058400090E0D5D85DCECB010E94A5B2FC0180814D
:1058500093E0803229F4818192E0803209F491E072
:10586000A401491B51094E0F5F1F892F880F880F14
:10587000981B892F6CE1E9808E0DADDB69E070E04B
:1058800080E090E0B4D856CE0E94A5B2FC018081A1
:1058900093E0803229F4818192E0803209F491E032
:1058A00043E050E0491B51094E0F5F1F892F880FBD
:1058B000880F981B892F67E0865A8DDB69E070E0BE
:1058C00080E090E094D859CECB010E94A5B2FC01B3
:1058D000808193E0803229F4818192E0803209F462
:1058E00091E043E050E0491B51094E0F5F1F892FA3
:1058F000880F880F981B892F6CE1865A6CDB69E052
:1059000070E080E090E073D851CE87E00E94D89F8D
:1059100080FF12C00CEA14E0F80161918F01662348
:1059200009F4ADCE6F320CF06FE3062E000C770B4E
:10593000880B990B5CD8F0CF80912C0580FD9CCE14
:105940008BEB91E14EDB9BCE87E00E94D89F869542
:1059500080FF12C007EA14E0F80161918F0166230D
:1059600009F4A6CE6F320CF06FE3062E000C770B15
:10597000880B990B3CD8F0CF80912C05869580FD43
:1059800094CE8BEB91E12DDB93CE87E00E94D89FE4
:105990008695869580FF12C001EB14E0F8016191B5
:1059A0008F01662309F49DCE6F320CF06FE3062E53
:1059B000000C770B880B990B1AD8F0CF80912C052F
:1059C0008695869580FD8ACE83EB91E10ADB89CEB0
:1059D00081E0CD80C11001C080E09091A6048917BC
:1059E000C9F0D0904F07D9828093A60480E597E054
:1059F0000E94DC18D81608F068C029812F5F29831F
:105A0000E22FF0E0E05BF84F8081807C8038A9F3E2
:105A100020934F0700914F0710E0005B184FC8011B
:105A20000E94DC18898360E870E0C8010E94091DAB
:105A30004981453108F04CC060E270E080E090E0C0
:105A40000E94F7246981643109F442C060E270E089
:105A500080E090E00E94F72489818331C9F160E2FF
:105A600070E080E090E00E94F7249981923181F10A
:105A7000292F30E02E5F3F4F4AEF4203B001439F92
:105A8000700D112460587F4F80E597E00E94091D3A
:105A900060E270E080E090E00F900F900F900F9028
:105AA0000F90DF91CF911F910F91FF90EF90DF90BA
:105AB000CF90BF90AF909F908F907F906F905F90AE
:105AC0004F903F902F900C94F72410924F07A2CF45
:105AD0000F900F900F900F900F90DF91CF911F912B
